{
  "contractName": "Dealership",
  "abi": [
    {
      "inputs": [
        {
          "internalType": "address",
          "name": "_nftAddress",
          "type": "address"
        },
        {
          "internalType": "address",
          "name": "_inspector",
          "type": "address"
        }
      ],
      "stateMutability": "nonpayable",
      "type": "constructor"
    },
    {
      "inputs": [
        {
          "internalType": "uint256",
          "name": "",
          "type": "uint256"
        },
        {
          "internalType": "address",
          "name": "",
          "type": "address"
        }
      ],
      "name": "approval",
      "outputs": [
        {
          "internalType": "bool",
          "name": "",
          "type": "bool"
        }
      ],
      "stateMutability": "view",
      "type": "function",
      "constant": true
    },
    {
      "inputs": [
        {
          "internalType": "uint256",
          "name": "",
          "type": "uint256"
        }
      ],
      "name": "buyer",
      "outputs": [
        {
          "internalType": "address",
          "name": "",
          "type": "address"
        }
      ],
      "stateMutability": "view",
      "type": "function",
      "constant": true
    },
    {
      "inputs": [
        {
          "internalType": "uint256",
          "name": "",
          "type": "uint256"
        }
      ],
      "name": "inspectionPassed",
      "outputs": [
        {
          "internalType": "bool",
          "name": "",
          "type": "bool"
        }
      ],
      "stateMutability": "view",
      "type": "function",
      "constant": true
    },
    {
      "inputs": [],
      "name": "inspector",
      "outputs": [
        {
          "internalType": "address",
          "name": "",
          "type": "address"
        }
      ],
      "stateMutability": "view",
      "type": "function",
      "constant": true
    },
    {
      "inputs": [
        {
          "internalType": "uint256",
          "name": "",
          "type": "uint256"
        }
      ],
      "name": "isListed",
      "outputs": [
        {
          "internalType": "bool",
          "name": "",
          "type": "bool"
        }
      ],
      "stateMutability": "view",
      "type": "function",
      "constant": true
    },
    {
      "inputs": [],
      "name": "nftAddress",
      "outputs": [
        {
          "internalType": "address",
          "name": "",
          "type": "address"
        }
      ],
      "stateMutability": "view",
      "type": "function",
      "constant": true
    },
    {
      "inputs": [
        {
          "internalType": "uint256",
          "name": "",
          "type": "uint256"
        }
      ],
      "name": "purchaseAmount",
      "outputs": [
        {
          "internalType": "uint256",
          "name": "",
          "type": "uint256"
        }
      ],
      "stateMutability": "view",
      "type": "function",
      "constant": true
    },
    {
      "inputs": [
        {
          "internalType": "uint256",
          "name": "",
          "type": "uint256"
        }
      ],
      "name": "seller",
      "outputs": [
        {
          "internalType": "address",
          "name": "",
          "type": "address"
        }
      ],
      "stateMutability": "view",
      "type": "function",
      "constant": true
    },
    {
      "stateMutability": "payable",
      "type": "receive",
      "payable": true
    },
    {
      "inputs": [
        {
          "internalType": "uint256",
          "name": "_nftID",
          "type": "uint256"
        },
        {
          "internalType": "uint256",
          "name": "_listPrice",
          "type": "uint256"
        }
      ],
      "name": "listCar",
      "outputs": [],
      "stateMutability": "payable",
      "type": "function",
      "payable": true
    },
    {
      "inputs": [
        {
          "internalType": "uint256",
          "name": "_nftID",
          "type": "uint256"
        }
      ],
      "name": "buyCar",
      "outputs": [],
      "stateMutability": "payable",
      "type": "function",
      "payable": true
    },
    {
      "inputs": [
        {
          "internalType": "uint256",
          "name": "_nftID",
          "type": "uint256"
        },
        {
          "internalType": "bool",
          "name": "_passed",
          "type": "bool"
        }
      ],
      "name": "updatedInspectionStatus",
      "outputs": [],
      "stateMutability": "nonpayable",
      "type": "function"
    },
    {
      "inputs": [
        {
          "internalType": "uint256",
          "name": "_nftID",
          "type": "uint256"
        }
      ],
      "name": "approveSale",
      "outputs": [],
      "stateMutability": "nonpayable",
      "type": "function"
    },
    {
      "inputs": [
        {
          "internalType": "uint256",
          "name": "_nftID",
          "type": "uint256"
        }
      ],
      "name": "finalizeSale",
      "outputs": [],
      "stateMutability": "nonpayable",
      "type": "function"
    },
    {
      "inputs": [],
      "name": "getBalance",
      "outputs": [
        {
          "internalType": "uint256",
          "name": "",
          "type": "uint256"
        }
      ],
      "stateMutability": "view",
      "type": "function",
      "constant": true
    }
  ],
  "bytecode": "0x60806040523480156200001157600080fd5b50604051620015293803806200152983398181016040528101906200003791906200012a565b816000806101000a81548173ffffffffffffffffffffffffffffffffffffffff021916908373ffffffffffffffffffffffffffffffffffffffff16021790555080600160006101000a81548173ffffffffffffffffffffffffffffffffffffffff021916908373ffffffffffffffffffffffffffffffffffffffff160217905550505062000171565b600080fd5b600073ffffffffffffffffffffffffffffffffffffffff82169050919050565b6000620000f282620000c5565b9050919050565b6200010481620000e5565b81146200011057600080fd5b50565b6000815190506200012481620000f9565b92915050565b60008060408385031215620001445762000143620000c0565b5b6000620001548582860162000113565b9250506020620001678582860162000113565b9150509250929050565b6113a880620001816000396000f3fe6080604052600436106100e15760003560e01c8063aa9293801161007f578063cc8f070811610059578063cc8f0708146102ce578063ed2cee9e1461030b578063fcce488314610336578063fe02c8a414610373576100e8565b8063aa9293801461022b578063aacdfe6f14610254578063b848de3514610291576100e8565b80635bf8633a116100bb5780635bf8633a1461017e5780635eed5fff146101a957806363b03bc2146101e65780636c2310601461020f576100e8565b806312065fe0146100ed57806314a72feb146101185780634dd4acaf14610141576100e8565b366100e857005b600080fd5b3480156100f957600080fd5b5061010261038f565b60405161010f9190610cf3565b60405180910390f35b34801561012457600080fd5b5061013f600480360381019061013a9190610d3f565b610397565b005b34801561014d57600080fd5b5061016860048036038101906101639190610d3f565b610403565b6040516101759190610dad565b60405180910390f35b34801561018a57600080fd5b50610193610436565b6040516101a09190610dad565b60405180910390f35b3480156101b557600080fd5b506101d060048036038101906101cb9190610d3f565b61045a565b6040516101dd9190610de3565b60405180910390f35b3480156101f257600080fd5b5061020d60048036038101906102089190610e2a565b61047a565b005b61022960048036038101906102249190610d3f565b610539565b005b34801561023757600080fd5b50610252600480360381019061024d9190610d3f565b6105e4565b005b34801561026057600080fd5b5061027b60048036038101906102769190610d3f565b6109e8565b6040516102889190610dad565b60405180910390f35b34801561029d57600080fd5b506102b860048036038101906102b39190610e96565b610a1b565b6040516102c59190610de3565b60405180910390f35b3480156102da57600080fd5b506102f560048036038101906102f09190610d3f565b610a4a565b6040516103029190610cf3565b60405180910390f35b34801561031757600080fd5b50610320610a62565b60405161032d9190610dad565b60405180910390f35b34801561034257600080fd5b5061035d60048036038101906103589190610d3f565b610a88565b60405161036a9190610de3565b60405180910390f35b61038d60048036038101906103889190610ed6565b610aa8565b005b600047905090565b60016007600083815260200190815260200160002060003373ffffffffffffffffffffffffffffffffffffffff1673ffffffffffffffffffffffffffffffffffffffff16815260200190815260200160002060006101000a81548160ff02191690831515021790555050565b60046020528060005260406000206000915054906101000a900473ffffffffffffffffffffffffffffffffffffffff1681565b60008054906101000a900473ffffffffffffffffffffffffffffffffffffffff1681565b60066020528060005260406000206000915054906101000a900460ff1681565b600160009054906101000a900473ffffffffffffffffffffffffffffffffffffffff1673ffffffffffffffffffffffffffffffffffffffff163373ffffffffffffffffffffffffffffffffffffffff161461050a576040517f08c379a000000000000000000000000000000000000000000000000000000000815260040161050190610f99565b60405180910390fd5b806006600084815260200190815260200160002060006101000a81548160ff0219169083151502179055505050565b600360008281526020019081526020016000205434101561058f576040517f08c379a000000000000000000000000000000000000000000000000000000000815260040161058690611005565b60405180910390fd5b336004600083815260200190815260200160002060006101000a81548173ffffffffffffffffffffffffffffffffffffffff021916908373ffffffffffffffffffffffffffffffffffffffff16021790555050565b6006600082815260200190815260200160002060009054906101000a900460ff16610644576040517f08c379a000000000000000000000000000000000000000000000000000000000815260040161063b90611071565b60405180910390fd5b6007600082815260200190815260200160002060006004600084815260200190815260200160002060009054906101000a900473ffffffffffffffffffffffffffffffffffffffff1673ffffffffffffffffffffffffffffffffffffffff1673ffffffffffffffffffffffffffffffffffffffff16815260200190815260200160002060009054906101000a900460ff16610714576040517f08c379a000000000000000000000000000000000000000000000000000000000815260040161070b906110dd565b60405180910390fd5b6007600082815260200190815260200160002060006005600084815260200190815260200160002060009054906101000a900473ffffffffffffffffffffffffffffffffffffffff1673ffffffffffffffffffffffffffffffffffffffff1673ffffffffffffffffffffffffffffffffffffffff16815260200190815260200160002060009054906101000a900460ff166107ae57600080fd5b6003600082815260200190815260200160002054471015610804576040517f08c379a00000000000000000000000000000000000000000000000000000000081526004016107fb9061116f565b60405180910390fd5b60006002600083815260200190815260200160002060006101000a81548160ff02191690831515021790555060006005600083815260200190815260200160002060009054906101000a900473ffffffffffffffffffffffffffffffffffffffff1673ffffffffffffffffffffffffffffffffffffffff16600360008481526020019081526020016000205460405161089c906111c0565b60006040518083038185875af1925050503d80600081146108d9576040519150601f19603f3d011682016040523d82523d6000602084013e6108de565b606091505b5050905080610922576040517f08c379a000000000000000000000000000000000000000000000000000000000815260040161091990611247565b60405180910390fd5b60008054906101000a900473ffffffffffffffffffffffffffffffffffffffff1673ffffffffffffffffffffffffffffffffffffffff166323b872dd306004600086815260200190815260200160002060009054906101000a900473ffffffffffffffffffffffffffffffffffffffff16856040518463ffffffff1660e01b81526004016109b293929190611267565b600060405180830381600087803b1580156109cc57600080fd5b505af11580156109e0573d6000803e3d6000fd5b505050505050565b60056020528060005260406000206000915054906101000a900473ffffffffffffffffffffffffffffffffffffffff1681565b60076020528160005260406000206020528060005260406000206000915091509054906101000a900460ff1681565b60036020528060005260406000206000915090505481565b600160009054906101000a900473ffffffffffffffffffffffffffffffffffffffff1681565b60026020528060005260406000206000915054906101000a900460ff1681565b813373ffffffffffffffffffffffffffffffffffffffff1660008054906101000a900473ffffffffffffffffffffffffffffffffffffffff1673ffffffffffffffffffffffffffffffffffffffff16636352211e836040518263ffffffff1660e01b8152600401610b199190610cf3565b602060405180830381865afa158015610b36573d6000803e3d6000fd5b505050506040513d601f19601f82011682018060405250810190610b5a91906112b3565b73ffffffffffffffffffffffffffffffffffffffff1614610bb0576040517f08c379a0000000000000000000000000000000000000000000000000000000008152600401610ba790611352565b60405180910390fd5b336005600085815260200190815260200160002060006101000a81548173ffffffffffffffffffffffffffffffffffffffff021916908373ffffffffffffffffffffffffffffffffffffffff16021790555060008054906101000a900473ffffffffffffffffffffffffffffffffffffffff1673ffffffffffffffffffffffffffffffffffffffff166323b872dd3330866040518463ffffffff1660e01b8152600401610c5f93929190611267565b600060405180830381600087803b158015610c7957600080fd5b505af1158015610c8d573d6000803e3d6000fd5b5050505060016002600085815260200190815260200160002060006101000a81548160ff021916908315150217905550816003600085815260200190815260200160002081905550505050565b6000819050919050565b610ced81610cda565b82525050565b6000602082019050610d086000830184610ce4565b92915050565b600080fd5b610d1c81610cda565b8114610d2757600080fd5b50565b600081359050610d3981610d13565b92915050565b600060208284031215610d5557610d54610d0e565b5b6000610d6384828501610d2a565b91505092915050565b600073ffffffffffffffffffffffffffffffffffffffff82169050919050565b6000610d9782610d6c565b9050919050565b610da781610d8c565b82525050565b6000602082019050610dc26000830184610d9e565b92915050565b60008115159050919050565b610ddd81610dc8565b82525050565b6000602082019050610df86000830184610dd4565b92915050565b610e0781610dc8565b8114610e1257600080fd5b50565b600081359050610e2481610dfe565b92915050565b60008060408385031215610e4157610e40610d0e565b5b6000610e4f85828601610d2a565b9250506020610e6085828601610e15565b9150509250929050565b610e7381610d8c565b8114610e7e57600080fd5b50565b600081359050610e9081610e6a565b92915050565b60008060408385031215610ead57610eac610d0e565b5b6000610ebb85828601610d2a565b9250506020610ecc85828601610e81565b9150509250929050565b60008060408385031215610eed57610eec610d0e565b5b6000610efb85828601610d2a565b9250506020610f0c85828601610d2a565b9150509250929050565b600082825260208201905092915050565b7f4f6e6c7920696e73706563746f722063616e2063616c6c2074686973206d657460008201527f686f640000000000000000000000000000000000000000000000000000000000602082015250565b6000610f83602383610f16565b9150610f8e82610f27565b604082019050919050565b60006020820190508181036000830152610fb281610f76565b9050919050565b7f496e73756666696369656e74207061796d656e74000000000000000000000000600082015250565b6000610fef601483610f16565b9150610ffa82610fb9565b602082019050919050565b6000602082019050818103600083015261101e81610fe2565b9050919050565b7f43617220686173206e6f742070617373656420696e7370656374696f6e000000600082015250565b600061105b601d83610f16565b915061106682611025565b602082019050919050565b6000602082019050818103600083015261108a8161104e565b9050919050565b7f427579657220686173206e6f7420617070726f766564207468652073616c6500600082015250565b60006110c7601f83610f16565b91506110d282611091565b602082019050919050565b600060208201905081810360008301526110f6816110ba565b9050919050565b7f496e73756666696369656e742066756e647320746f20636f766572207468652060008201527f707572636861736520616d6f756e740000000000000000000000000000000000602082015250565b6000611159602f83610f16565b9150611164826110fd565b604082019050919050565b600060208201905081810360008301526111888161114c565b9050919050565b600081905092915050565b50565b60006111aa60008361118f565b91506111b58261119a565b600082019050919050565b60006111cb8261119d565b9150819050919050565b7f4661696c656420746f207472616e736665722066756e647320746f2073656c6c60008201527f6572000000000000000000000000000000000000000000000000000000000000602082015250565b6000611231602283610f16565b915061123c826111d5565b604082019050919050565b6000602082019050818103600083015261126081611224565b9050919050565b600060608201905061127c6000830186610d9e565b6112896020830185610d9e565b6112966040830184610ce4565b949350505050565b6000815190506112ad81610e6a565b92915050565b6000602082840312156112c9576112c8610d0e565b5b60006112d78482850161129e565b91505092915050565b7f596f7520617265206e6f7420746865206f776e6572206f662074686973204e4660008201527f542e000000000000000000000000000000000000000000000000000000000000602082015250565b600061133c602283610f16565b9150611347826112e0565b604082019050919050565b6000602082019050818103600083015261136b8161132f565b905091905056fea264697066735822122097a614ff1f374027a64f1128816bc06e99d87acaf4c63dc3cc74f75e220ba55b64736f6c63430008130033",
  "immutableReferences": {},
  "source": "// SPDX-License-Identifier: GPL-3.0\n\npragma solidity >=0.7.0 <0.9.0;\n\ninterface IERC721 {\n    function ownerOf(uint256 tokenId) external view returns (address owner);\n\n    function transferFrom(\n        address _from,\n        address _to,\n        uint256 _id\n    ) external;\n}\n\ncontract Dealership {\n    address public nftAddress;\n    address public inspector;\n\n    modifier onlyBuyer(uint256 _nftID) {\n        require(msg.sender == buyer[_nftID], \"Only buyer can call this method\");\n        _;\n    }\n    modifier iOwn(uint256 tokenId) {\n        require(IERC721(nftAddress).ownerOf(tokenId) == msg.sender, \"You are not the owner of this NFT.\");\n        _;\n    }\n    modifier onlyInspector() {\n        require(msg.sender == inspector, \"Only inspector can call this method\");\n        _;\n    }\n\n    mapping (uint256 => bool) public isListed;\n    mapping (uint256 => uint) public purchaseAmount;\n    mapping (uint256 => address) public buyer;\n    mapping (uint256 => address) public seller;\n    mapping (uint256 => bool) public inspectionPassed;\n    mapping(uint256 => mapping(address => bool)) public approval;\n\n    constructor(\n        address _nftAddress,\n        address _inspector\n        ) {\n        nftAddress = _nftAddress;\n        inspector = _inspector;\n    }\n\n    function listCar(uint256 _nftID, uint256 _listPrice) public payable iOwn(_nftID) {\n        seller[_nftID] = msg.sender;\n        IERC721(nftAddress).transferFrom(msg.sender, address(this), _nftID);\n        // downPayment[_nftID] = (_listPrice * 20) / 100;\n        // loanAmount[_nftID] = _listPrice * 80 / 100;\n        isListed[_nftID] = true;\n        purchaseAmount[_nftID] = _listPrice;\n    }   \n\n    function buyCar(uint256 _nftID) public payable {\n        require(msg.value >= purchaseAmount[_nftID], \"Insufficient payment\");\n        buyer[_nftID] = msg.sender;\n    }\n\n    // function finalizeLoan(uint256 _nftID) public {\n    //     downPayment[_nftID] = (purchaseAmount[_nftID] * 20) / 100;\n    //     loanAmount[_nftID] = purchaseAmount[_nftID] * 80 / 100;\n    //     depositDownPayment(_nftID);\n    // }\n\n    // function depositDownPayment(uint256 _nftID) public payable onlyBuyer(_nftID) {\n    //     require(msg.value >= downPayment[_nftID], \"Insufficient down payment\");\n    //     (bool success,) = payable(seller[_nftID]).call{value: msg.value}(\"\");\n    //     require(success, \"Failed to transfer down payment to seller\");\n    // }\n\n    function updatedInspectionStatus(uint256 _nftID, bool _passed) public onlyInspector {\n        inspectionPassed[_nftID] = _passed;\n    }\n\n    function approveSale(uint256 _nftID) public {\n        approval[_nftID][msg.sender] = true;\n    }\n\n    function finalizeSale(uint256 _nftID) public {\n        require(inspectionPassed[_nftID], \"Car has not passed inspection\");\n        require(approval[_nftID][buyer[_nftID]], \"Buyer has not approved the sale\");\n        require(approval[_nftID][seller[_nftID]]);\n        require(address(this).balance >= purchaseAmount[_nftID], \"Insufficient funds to cover the purchase amount\");\n\n        isListed[_nftID] = false;\n\n        (bool success,) = payable(seller[_nftID]).call{value: purchaseAmount[_nftID]}(\"\");\n        require(success, \"Failed to transfer funds to seller\");\n\n        IERC721(nftAddress).transferFrom(address(this), buyer[_nftID], _nftID);\n    }\n\n    receive() external payable {}\n\n    function getBalance() public view returns (uint256) {\n        return (address(this).balance);\n    }\n}",
  "sourcePath": "/Users/keatonkrieger/Documents/Dev/PetrolTrader/truffle-app/contracts/dealership.sol",
  "compiler": {
    "name": "solc",
    "version": "0.8.19+commit.7dd6d404.Emscripten.clang"
  },
  "schemaVersion": "3.4.13",
  "updatedAt": "2023-04-04T00:22:45.992Z",
  "networkType": "ethereum",
  "devdoc": {
    "kind": "dev",
    "methods": {},
    "version": 1
  },
  "userdoc": {
    "kind": "user",
    "methods": {},
    "version": 1
  }
}