{
  "contractName": "Dealership",
  "abi": [
    {
      "inputs": [
        {
          "internalType": "address",
          "name": "_nftAddress",
          "type": "address"
        },
        {
          "internalType": "address",
          "name": "_inspector",
          "type": "address"
        }
      ],
      "stateMutability": "nonpayable",
      "type": "constructor"
    },
    {
      "anonymous": false,
      "inputs": [
        {
          "indexed": true,
          "internalType": "uint256",
          "name": "nftID",
          "type": "uint256"
        },
        {
          "indexed": true,
          "internalType": "address",
          "name": "buyer",
          "type": "address"
        },
        {
          "indexed": true,
          "internalType": "uint256",
          "name": "purchaseAmount",
          "type": "uint256"
        }
      ],
      "name": "CarBought",
      "type": "event"
    },
    {
      "anonymous": false,
      "inputs": [
        {
          "indexed": true,
          "internalType": "uint256",
          "name": "nftID",
          "type": "uint256"
        },
        {
          "indexed": false,
          "internalType": "bool",
          "name": "passed",
          "type": "bool"
        },
        {
          "indexed": false,
          "internalType": "address",
          "name": "inspector",
          "type": "address"
        }
      ],
      "name": "CarInspected",
      "type": "event"
    },
    {
      "anonymous": false,
      "inputs": [
        {
          "indexed": true,
          "internalType": "uint256",
          "name": "nftID",
          "type": "uint256"
        },
        {
          "indexed": true,
          "internalType": "address",
          "name": "seller",
          "type": "address"
        },
        {
          "indexed": false,
          "internalType": "uint256",
          "name": "listPrice",
          "type": "uint256"
        }
      ],
      "name": "CarListed",
      "type": "event"
    },
    {
      "anonymous": false,
      "inputs": [
        {
          "indexed": true,
          "internalType": "uint256",
          "name": "nftID",
          "type": "uint256"
        },
        {
          "indexed": true,
          "internalType": "address",
          "name": "buyer",
          "type": "address"
        },
        {
          "indexed": true,
          "internalType": "address",
          "name": "seller",
          "type": "address"
        },
        {
          "indexed": false,
          "internalType": "uint256",
          "name": "purchaseAmount",
          "type": "uint256"
        }
      ],
      "name": "CarSold",
      "type": "event"
    },
    {
      "anonymous": false,
      "inputs": [
        {
          "indexed": true,
          "internalType": "uint256",
          "name": "nftID",
          "type": "uint256"
        },
        {
          "indexed": true,
          "internalType": "address",
          "name": "approver",
          "type": "address"
        }
      ],
      "name": "SaleApproved",
      "type": "event"
    },
    {
      "inputs": [
        {
          "internalType": "uint256",
          "name": "",
          "type": "uint256"
        },
        {
          "internalType": "address",
          "name": "",
          "type": "address"
        }
      ],
      "name": "approval",
      "outputs": [
        {
          "internalType": "bool",
          "name": "",
          "type": "bool"
        }
      ],
      "stateMutability": "view",
      "type": "function"
    },
    {
      "inputs": [
        {
          "internalType": "uint256",
          "name": "",
          "type": "uint256"
        }
      ],
      "name": "buyer",
      "outputs": [
        {
          "internalType": "address",
          "name": "",
          "type": "address"
        }
      ],
      "stateMutability": "view",
      "type": "function"
    },
    {
      "inputs": [
        {
          "internalType": "uint256",
          "name": "",
          "type": "uint256"
        }
      ],
      "name": "inspectionPassed",
      "outputs": [
        {
          "internalType": "bool",
          "name": "",
          "type": "bool"
        }
      ],
      "stateMutability": "view",
      "type": "function"
    },
    {
      "inputs": [],
      "name": "inspector",
      "outputs": [
        {
          "internalType": "address",
          "name": "",
          "type": "address"
        }
      ],
      "stateMutability": "view",
      "type": "function"
    },
    {
      "inputs": [
        {
          "internalType": "uint256",
          "name": "",
          "type": "uint256"
        }
      ],
      "name": "isListed",
      "outputs": [
        {
          "internalType": "bool",
          "name": "",
          "type": "bool"
        }
      ],
      "stateMutability": "view",
      "type": "function"
    },
    {
      "inputs": [
        {
          "internalType": "uint256",
          "name": "",
          "type": "uint256"
        }
      ],
      "name": "listedTokens",
      "outputs": [
        {
          "internalType": "uint256",
          "name": "nftID",
          "type": "uint256"
        },
        {
          "internalType": "address",
          "name": "owner",
          "type": "address"
        }
      ],
      "stateMutability": "view",
      "type": "function"
    },
    {
      "inputs": [],
      "name": "nftAddress",
      "outputs": [
        {
          "internalType": "address",
          "name": "",
          "type": "address"
        }
      ],
      "stateMutability": "view",
      "type": "function"
    },
    {
      "inputs": [
        {
          "internalType": "uint256",
          "name": "",
          "type": "uint256"
        }
      ],
      "name": "purchaseAmount",
      "outputs": [
        {
          "internalType": "uint256",
          "name": "",
          "type": "uint256"
        }
      ],
      "stateMutability": "view",
      "type": "function"
    },
    {
      "inputs": [
        {
          "internalType": "uint256",
          "name": "",
          "type": "uint256"
        }
      ],
      "name": "seller",
      "outputs": [
        {
          "internalType": "address",
          "name": "",
          "type": "address"
        }
      ],
      "stateMutability": "view",
      "type": "function"
    },
    {
      "inputs": [
        {
          "internalType": "uint256",
          "name": "",
          "type": "uint256"
        }
      ],
      "name": "soldTokens",
      "outputs": [
        {
          "internalType": "uint256",
          "name": "nftID",
          "type": "uint256"
        },
        {
          "internalType": "address",
          "name": "owner",
          "type": "address"
        }
      ],
      "stateMutability": "view",
      "type": "function"
    },
    {
      "stateMutability": "payable",
      "type": "receive"
    },
    {
      "inputs": [
        {
          "internalType": "uint256",
          "name": "_nftID",
          "type": "uint256"
        },
        {
          "internalType": "uint256",
          "name": "_listPrice",
          "type": "uint256"
        }
      ],
      "name": "listCar",
      "outputs": [],
      "stateMutability": "payable",
      "type": "function"
    },
    {
      "inputs": [
        {
          "internalType": "uint256",
          "name": "_nftID",
          "type": "uint256"
        }
      ],
      "name": "buyCar",
      "outputs": [],
      "stateMutability": "payable",
      "type": "function"
    },
    {
      "inputs": [
        {
          "internalType": "uint256",
          "name": "_nftID",
          "type": "uint256"
        },
        {
          "internalType": "bool",
          "name": "_passed",
          "type": "bool"
        }
      ],
      "name": "updatedInspectionStatus",
      "outputs": [],
      "stateMutability": "nonpayable",
      "type": "function"
    },
    {
      "inputs": [
        {
          "internalType": "uint256",
          "name": "_nftID",
          "type": "uint256"
        }
      ],
      "name": "approveSale",
      "outputs": [],
      "stateMutability": "nonpayable",
      "type": "function"
    },
    {
      "inputs": [],
      "name": "getAllTokens",
      "outputs": [
        {
          "internalType": "uint256[]",
          "name": "",
          "type": "uint256[]"
        }
      ],
      "stateMutability": "view",
      "type": "function"
    },
    {
      "inputs": [],
      "name": "getAllSoldTokens",
      "outputs": [
        {
          "internalType": "uint256[]",
          "name": "",
          "type": "uint256[]"
        }
      ],
      "stateMutability": "view",
      "type": "function"
    },
    {
      "inputs": [
        {
          "internalType": "uint256",
          "name": "tokenId",
          "type": "uint256"
        }
      ],
      "name": "removeToken",
      "outputs": [],
      "stateMutability": "nonpayable",
      "type": "function"
    },
    {
      "inputs": [
        {
          "internalType": "uint256",
          "name": "_nftID",
          "type": "uint256"
        }
      ],
      "name": "finalizeSale",
      "outputs": [],
      "stateMutability": "nonpayable",
      "type": "function"
    },
    {
      "inputs": [],
      "name": "getBalance",
      "outputs": [
        {
          "internalType": "uint256",
          "name": "",
          "type": "uint256"
        }
      ],
      "stateMutability": "view",
      "type": "function"
    }
  ],
  "bytecode": "0x60806040523480156200001157600080fd5b50604051620021823803806200218283398181016040528101906200003791906200012a565b816000806101000a81548173ffffffffffffffffffffffffffffffffffffffff021916908373ffffffffffffffffffffffffffffffffffffffff16021790555080600160006101000a81548173ffffffffffffffffffffffffffffffffffffffff021916908373ffffffffffffffffffffffffffffffffffffffff160217905550505062000171565b600080fd5b600073ffffffffffffffffffffffffffffffffffffffff82169050919050565b6000620000f282620000c5565b9050919050565b6200010481620000e5565b81146200011057600080fd5b50565b6000815190506200012481620000f9565b92915050565b60008060408385031215620001445762000143620000c0565b5b6000620001548582860162000113565b9250506020620001678582860162000113565b9150509250929050565b61200180620001816000396000f3fe6080604052600436106101185760003560e01c806363b03bc2116100a0578063b848de3511610064578063b848de35146103c3578063cc8f070814610400578063ed2cee9e1461043d578063fcce488314610468578063fe02c8a4146104a55761011f565b806363b03bc2146102da5780636c23106014610303578063aa9293801461031f578063aacdfe6f14610348578063ad9ab857146103855761011f565b80634dd4acaf116100e75780634dd4acaf146101cc5780635a9d1ac3146102095780635bf8633a146102475780635eed5fff146102725780636266a46c146102af5761011f565b806312065fe01461012457806314a72feb1461014f5780632a5c792a1461017857806336c5d724146101a35761011f565b3661011f57005b600080fd5b34801561013057600080fd5b506101396104c1565b604051610146919061160a565b60405180910390f35b34801561015b57600080fd5b5061017660048036038101906101719190611656565b6104c9565b005b34801561018457600080fd5b5061018d610579565b60405161019a9190611741565b60405180910390f35b3480156101af57600080fd5b506101ca60048036038101906101c59190611656565b61063d565b005b3480156101d857600080fd5b506101f360048036038101906101ee9190611656565b61081e565b60405161020091906117a4565b60405180910390f35b34801561021557600080fd5b50610230600480360381019061022b9190611656565b610851565b60405161023e9291906117bf565b60405180910390f35b34801561025357600080fd5b5061025c6108a5565b60405161026991906117a4565b60405180910390f35b34801561027e57600080fd5b5061029960048036038101906102949190611656565b6108c9565b6040516102a69190611803565b60405180910390f35b3480156102bb57600080fd5b506102c46108e9565b6040516102d19190611741565b60405180910390f35b3480156102e657600080fd5b5061030160048036038101906102fc919061184a565b6109ad565b005b61031d60048036038101906103189190611656565b610aa6565b005b34801561032b57600080fd5b5061034660048036038101906103419190611656565b610ba9565b005b34801561035457600080fd5b5061036f600480360381019061036a9190611656565b6111ad565b60405161037c91906117a4565b60405180910390f35b34801561039157600080fd5b506103ac60048036038101906103a79190611656565b6111e0565b6040516103ba9291906117bf565b60405180910390f35b3480156103cf57600080fd5b506103ea60048036038101906103e591906118b6565b611234565b6040516103f79190611803565b60405180910390f35b34801561040c57600080fd5b5061042760048036038101906104229190611656565b611263565b604051610434919061160a565b60405180910390f35b34801561044957600080fd5b5061045261127b565b60405161045f91906117a4565b60405180910390f35b34801561047457600080fd5b5061048f600480360381019061048a9190611656565b6112a1565b60405161049c9190611803565b60405180910390f35b6104bf60048036038101906104ba91906118f6565b6112c1565b005b600047905090565b60016009600083815260200190815260200160002060003373ffffffffffffffffffffffffffffffffffffffff1673ffffffffffffffffffffffffffffffffffffffff16815260200190815260200160002060006101000a81548160ff0219169083151502179055503373ffffffffffffffffffffffffffffffffffffffff16817f4dc60bf23e5a965cf059957e78d62c6c6cc8835ad6cea32928a940f447197cbc60405160405180910390a350565b6060600060028054905067ffffffffffffffff81111561059c5761059b611936565b5b6040519080825280602002602001820160405280156105ca5781602001602082028036833780820191505090505b50905060005b60028054905081101561063557600281815481106105f1576105f0611965565b5b90600052602060002090600202016000015482828151811061061657610615611965565b5b602002602001018181525050808061062d906119c3565b9150506105d0565b508091505090565b60008060005b60028054905081101561069b57836002828154811061066557610664611965565b5b90600052602060002090600202016000015403610688578092506001915061069b565b8080610693906119c3565b915050610643565b50806106dc576040517f08c379a00000000000000000000000000000000000000000000000000000000081526004016106d390611a68565b60405180910390fd5b60016002805490506106ee9190611a88565b8210156107bf57600260016002805490506107099190611a88565b8154811061071a57610719611965565b5b90600052602060002090600202016002838154811061073c5761073b611965565b5b9060005260206000209060020201600082015481600001556001820160009054906101000a900473ffffffffffffffffffffffffffffffffffffffff168160010160006101000a81548173ffffffffffffffffffffffffffffffffffffffff021916908373ffffffffffffffffffffffffffffffffffffffff1602179055509050505b60028054806107d1576107d0611abc565b5b60019003818190600052602060002090600202016000808201600090556001820160006101000a81549073ffffffffffffffffffffffffffffffffffffffff021916905550509055505050565b60066020528060005260406000206000915054906101000a900473ffffffffffffffffffffffffffffffffffffffff1681565b6002818154811061086157600080fd5b90600052602060002090600202016000915090508060000154908060010160009054906101000a900473ffffffffffffffffffffffffffffffffffffffff16905082565b60008054906101000a900473ffffffffffffffffffffffffffffffffffffffff1681565b60086020528060005260406000206000915054906101000a900460ff1681565b6060600060038054905067ffffffffffffffff81111561090c5761090b611936565b5b60405190808252806020026020018201604052801561093a5781602001602082028036833780820191505090505b50905060005b6003805490508110156109a5576003818154811061096157610960611965565b5b90600052602060002090600202016000015482828151811061098657610985611965565b5b602002602001018181525050808061099d906119c3565b915050610940565b508091505090565b600160009054906101000a900473ffffffffffffffffffffffffffffffffffffffff1673ffffffffffffffffffffffffffffffffffffffff163373ffffffffffffffffffffffffffffffffffffffff1614610a3d576040517f08c379a0000000000000000000000000000000000000000000000000000000008152600401610a3490611b5d565b60405180910390fd5b806008600084815260200190815260200160002060006101000a81548160ff021916908315150217905550817f1308e74752b9c14993be3f6f37d66bf3c725369088c619bdf852006b2264fa078233604051610a9a929190611b7d565b60405180910390a25050565b6005600082815260200190815260200160002054341015610afc576040517f08c379a0000000000000000000000000000000000000000000000000000000008152600401610af390611bf2565b60405180910390fd5b336006600083815260200190815260200160002060006101000a81548173ffffffffffffffffffffffffffffffffffffffff021916908373ffffffffffffffffffffffffffffffffffffffff16021790555060056000828152602001908152602001600020543373ffffffffffffffffffffffffffffffffffffffff16827f449255b6c4c342abac892698c51419261f9fa9e44b181f0f2f31d40bf6d76b3f60405160405180910390a450565b6005600082815260200190815260200160002054471015610bff576040517f08c379a0000000000000000000000000000000000000000000000000000000008152600401610bf690611c84565b60405180910390fd5b6008600082815260200190815260200160002060009054906101000a900460ff16610c5f576040517f08c379a0000000000000000000000000000000000000000000000000000000008152600401610c5690611cf0565b60405180910390fd5b6009600082815260200190815260200160002060006006600084815260200190815260200160002060009054906101000a900473ffffffffffffffffffffffffffffffffffffffff1673ffffffffffffffffffffffffffffffffffffffff1673ffffffffffffffffffffffffffffffffffffffff16815260200190815260200160002060009054906101000a900460ff16610d2f576040517f08c379a0000000000000000000000000000000000000000000000000000000008152600401610d2690611d5c565b60405180910390fd5b6009600082815260200190815260200160002060006007600084815260200190815260200160002060009054906101000a900473ffffffffffffffffffffffffffffffffffffffff1673ffffffffffffffffffffffffffffffffffffffff1673ffffffffffffffffffffffffffffffffffffffff16815260200190815260200160002060009054906101000a900460ff16610dff576040517f08c379a0000000000000000000000000000000000000000000000000000000008152600401610df690611dc8565b60405180910390fd5b60006004600083815260200190815260200160002060006101000a81548160ff02191690831515021790555060006007600083815260200190815260200160002060009054906101000a900473ffffffffffffffffffffffffffffffffffffffff1673ffffffffffffffffffffffffffffffffffffffff166005600084815260200190815260200160002054604051610e9790611e19565b60006040518083038185875af1925050503d8060008114610ed4576040519150601f19603f3d011682016040523d82523d6000602084013e610ed9565b606091505b5050905080610f1d576040517f08c379a0000000000000000000000000000000000000000000000000000000008152600401610f1490611ea0565b60405180910390fd5b610f268261063d565b60008054906101000a900473ffffffffffffffffffffffffffffffffffffffff1673ffffffffffffffffffffffffffffffffffffffff166323b872dd306006600086815260200190815260200160002060009054906101000a900473ffffffffffffffffffffffffffffffffffffffff16856040518463ffffffff1660e01b8152600401610fb693929190611ec0565b600060405180830381600087803b158015610fd057600080fd5b505af1158015610fe4573d6000803e3d6000fd5b50505050600060405180604001604052808481526020016006600086815260200190815260200160002060009054906101000a900473ffffffffffffffffffffffffffffffffffffffff1673ffffffffffffffffffffffffffffffffffffffff16815250905060038190806001815401808255809150506001900390600052602060002090600202016000909190919091506000820151816000015560208201518160010160006101000a81548173ffffffffffffffffffffffffffffffffffffffff021916908373ffffffffffffffffffffffffffffffffffffffff16021790555050506007600084815260200190815260200160002060009054906101000a900473ffffffffffffffffffffffffffffffffffffffff1673ffffffffffffffffffffffffffffffffffffffff166006600085815260200190815260200160002060009054906101000a900473ffffffffffffffffffffffffffffffffffffffff1673ffffffffffffffffffffffffffffffffffffffff16847f8205a71867f7292bcef9e53d4774758d6173b03f63017dec9a03a6664b429dc560056000888152602001908152602001600020546040516111a0919061160a565b60405180910390a4505050565b60076020528060005260406000206000915054906101000a900473ffffffffffffffffffffffffffffffffffffffff1681565b600381815481106111f057600080fd5b90600052602060002090600202016000915090508060000154908060010160009054906101000a900473ffffffffffffffffffffffffffffffffffffffff16905082565b60096020528160005260406000206020528060005260406000206000915091509054906101000a900460ff1681565b60056020528060005260406000206000915090505481565b600160009054906101000a900473ffffffffffffffffffffffffffffffffffffffff1681565b60046020528060005260406000206000915054906101000a900460ff1681565b813373ffffffffffffffffffffffffffffffffffffffff1660008054906101000a900473ffffffffffffffffffffffffffffffffffffffff1673ffffffffffffffffffffffffffffffffffffffff16636352211e836040518263ffffffff1660e01b8152600401611332919061160a565b602060405180830381865afa15801561134f573d6000803e3d6000fd5b505050506040513d601f19601f820116820180604052508101906113739190611f0c565b73ffffffffffffffffffffffffffffffffffffffff16146113c9576040517f08c379a00000000000000000000000000000000000000000000000000000000081526004016113c090611fab565b60405180910390fd5b336007600085815260200190815260200160002060006101000a81548173ffffffffffffffffffffffffffffffffffffffff021916908373ffffffffffffffffffffffffffffffffffffffff16021790555060008054906101000a900473ffffffffffffffffffffffffffffffffffffffff1673ffffffffffffffffffffffffffffffffffffffff166323b872dd3330866040518463ffffffff1660e01b815260040161147893929190611ec0565b600060405180830381600087803b15801561149257600080fd5b505af11580156114a6573d6000803e3d6000fd5b50505050600060405180604001604052808581526020013373ffffffffffffffffffffffffffffffffffffffff16815250905060028190806001815401808255809150506001900390600052602060002090600202016000909190919091506000820151816000015560208201518160010160006101000a81548173ffffffffffffffffffffffffffffffffffffffff021916908373ffffffffffffffffffffffffffffffffffffffff160217905550505060016004600086815260200190815260200160002060006101000a81548160ff0219169083151502179055508260056000868152602001908152602001600020819055503373ffffffffffffffffffffffffffffffffffffffff16847f346237025e4b201cfbdb8011c7afcd8a0cc16c50e910d6ac5645ab7406be429d856040516115e3919061160a565b60405180910390a350505050565b6000819050919050565b611604816115f1565b82525050565b600060208201905061161f60008301846115fb565b92915050565b600080fd5b611633816115f1565b811461163e57600080fd5b50565b6000813590506116508161162a565b92915050565b60006020828403121561166c5761166b611625565b5b600061167a84828501611641565b91505092915050565b600081519050919050565b600082825260208201905092915050565b6000819050602082019050919050565b6116b8816115f1565b82525050565b60006116ca83836116af565b60208301905092915050565b6000602082019050919050565b60006116ee82611683565b6116f8818561168e565b93506117038361169f565b8060005b8381101561173457815161171b88826116be565b9750611726836116d6565b925050600181019050611707565b5085935050505092915050565b6000602082019050818103600083015261175b81846116e3565b905092915050565b600073ffffffffffffffffffffffffffffffffffffffff82169050919050565b600061178e82611763565b9050919050565b61179e81611783565b82525050565b60006020820190506117b96000830184611795565b92915050565b60006040820190506117d460008301856115fb565b6117e16020830184611795565b9392505050565b60008115159050919050565b6117fd816117e8565b82525050565b600060208201905061181860008301846117f4565b92915050565b611827816117e8565b811461183257600080fd5b50565b6000813590506118448161181e565b92915050565b6000806040838503121561186157611860611625565b5b600061186f85828601611641565b925050602061188085828601611835565b9150509250929050565b61189381611783565b811461189e57600080fd5b50565b6000813590506118b08161188a565b92915050565b600080604083850312156118cd576118cc611625565b5b60006118db85828601611641565b92505060206118ec858286016118a1565b9150509250929050565b6000806040838503121561190d5761190c611625565b5b600061191b85828601611641565b925050602061192c85828601611641565b9150509250929050565b7f4e487b7100000000000000000000000000000000000000000000000000000000600052604160045260246000fd5b7f4e487b7100000000000000000000000000000000000000000000000000000000600052603260045260246000fd5b7f4e487b7100000000000000000000000000000000000000000000000000000000600052601160045260246000fd5b60006119ce826115f1565b91507fffffffffffffffffffffffffffffffffffffffffffffffffffffffffffffffff8203611a00576119ff611994565b5b600182019050919050565b600082825260208201905092915050565b7f546f6b656e204944206e6f7420666f756e6420696e20746f6b656e4c69737400600082015250565b6000611a52601f83611a0b565b9150611a5d82611a1c565b602082019050919050565b60006020820190508181036000830152611a8181611a45565b9050919050565b6000611a93826115f1565b9150611a9e836115f1565b9250828203905081811115611ab657611ab5611994565b5b92915050565b7f4e487b7100000000000000000000000000000000000000000000000000000000600052603160045260246000fd5b7f4f6e6c7920696e73706563746f722063616e2063616c6c2074686973206d657460008201527f686f640000000000000000000000000000000000000000000000000000000000602082015250565b6000611b47602383611a0b565b9150611b5282611aeb565b604082019050919050565b60006020820190508181036000830152611b7681611b3a565b9050919050565b6000604082019050611b9260008301856117f4565b611b9f6020830184611795565b9392505050565b7f496e73756666696369656e74207061796d656e74000000000000000000000000600082015250565b6000611bdc601483611a0b565b9150611be782611ba6565b602082019050919050565b60006020820190508181036000830152611c0b81611bcf565b9050919050565b7f496e73756666696369656e742066756e647320746f20636f766572207468652060008201527f707572636861736520616d6f756e740000000000000000000000000000000000602082015250565b6000611c6e602f83611a0b565b9150611c7982611c12565b604082019050919050565b60006020820190508181036000830152611c9d81611c61565b9050919050565b7f43617220686173206e6f742070617373656420696e7370656374696f6e000000600082015250565b6000611cda601d83611a0b565b9150611ce582611ca4565b602082019050919050565b60006020820190508181036000830152611d0981611ccd565b9050919050565b7f427579657220686173206e6f7420617070726f766564207468652073616c6500600082015250565b6000611d46601f83611a0b565b9150611d5182611d10565b602082019050919050565b60006020820190508181036000830152611d7581611d39565b9050919050565b7f53656c6c657220686173206e6f7420617070726f766564207468652073616c65600082015250565b6000611db2602083611a0b565b9150611dbd82611d7c565b602082019050919050565b60006020820190508181036000830152611de181611da5565b9050919050565b600081905092915050565b50565b6000611e03600083611de8565b9150611e0e82611df3565b600082019050919050565b6000611e2482611df6565b9150819050919050565b7f4661696c656420746f207472616e736665722066756e647320746f2073656c6c60008201527f6572000000000000000000000000000000000000000000000000000000000000602082015250565b6000611e8a602283611a0b565b9150611e9582611e2e565b604082019050919050565b60006020820190508181036000830152611eb981611e7d565b9050919050565b6000606082019050611ed56000830186611795565b611ee26020830185611795565b611eef60408301846115fb565b949350505050565b600081519050611f068161188a565b92915050565b600060208284031215611f2257611f21611625565b5b6000611f3084828501611ef7565b91505092915050565b7f596f7520617265206e6f7420746865206f776e6572206f662074686973204e4660008201527f542e000000000000000000000000000000000000000000000000000000000000602082015250565b6000611f95602283611a0b565b9150611fa082611f39565b604082019050919050565b60006020820190508181036000830152611fc481611f88565b905091905056fea2646970667358221220f85828535ab22c2a806b1fe0be67ce39fb456919899e4bf7d68bf59e129b04d264736f6c63430008130033",
  "immutableReferences": {},
  "source": "// SPDX-License-Identifier: GPL-3.0\n\npragma solidity >=0.7.0 <0.9.0;\n\ninterface IERC721 {\n    function ownerOf(uint256 tokenId) external view returns (address owner);\n\n    function transferFrom(\n        address _from,\n        address _to,\n        uint256 _id\n    ) external;\n}\n\ncontract Dealership {\n    event CarListed(uint256 indexed nftID, address indexed seller, uint256 listPrice);\n    event CarBought(uint256 indexed nftID, address indexed buyer, uint256 indexed purchaseAmount);\n    event CarSold(uint256 indexed nftID, address indexed buyer, address indexed seller, uint256 purchaseAmount);\n    event CarInspected(uint indexed nftID, bool passed, address inspector);\n    event SaleApproved(uint indexed nftID, address indexed approver);\n\n    address public nftAddress;\n    address public inspector;\n\n    struct TokenData {\n        uint256 nftID;\n        address owner;\n    }\n\n    TokenData[] public listedTokens;\n    TokenData[] public soldTokens;\n\n\n    modifier onlyBuyer(uint256 _nftID) {\n        require(msg.sender == buyer[_nftID], \"Only buyer can call this method\");\n        _;\n    }\n    modifier onlyOwner(uint256 tokenId) {\n        require(IERC721(nftAddress).ownerOf(tokenId) == msg.sender, \"You are not the owner of this NFT.\");\n        _;\n    }\n    modifier onlyInspector() {\n        require(msg.sender == inspector, \"Only inspector can call this method\");\n        _;\n    }\n\n    mapping (uint256 => bool) public isListed;\n    mapping (uint256 => uint) public purchaseAmount;\n    mapping (uint256 => address) public buyer;\n    mapping (uint256 => address) public seller;\n    mapping (uint256 => bool) public inspectionPassed;\n    mapping(uint256 => mapping(address => bool)) public approval;\n\n    constructor(\n        address _nftAddress,\n        address _inspector\n        ) {\n        nftAddress = _nftAddress;\n        inspector = _inspector;\n    }\n\n    function listCar(uint256 _nftID, uint256 _listPrice) public payable onlyOwner(_nftID) {\n        seller[_nftID] = msg.sender;\n        IERC721(nftAddress).transferFrom(msg.sender, address(this), _nftID);\n        TokenData memory newToken = TokenData(_nftID, msg.sender);\n        listedTokens.push(newToken);\n        isListed[_nftID] = true;\n        purchaseAmount[_nftID] = _listPrice;\n\n        emit CarListed(_nftID, msg.sender, _listPrice);\n    }   \n\n    function buyCar(uint256 _nftID) public payable {\n        require(msg.value >= purchaseAmount[_nftID], \"Insufficient payment\");\n        buyer[_nftID] = msg.sender;\n\n        emit CarBought(_nftID, msg.sender, purchaseAmount[_nftID]);\n    }\n\n    function updatedInspectionStatus(uint256 _nftID, bool _passed) public onlyInspector {\n        inspectionPassed[_nftID] = _passed;\n\n        emit CarInspected(_nftID, _passed, msg.sender);\n    }\n\n    function approveSale(uint256 _nftID) public {\n        approval[_nftID][msg.sender] = true;\n\n        emit SaleApproved(_nftID, msg.sender);\n    }\n\n    function getAllTokens() public view returns (uint256[] memory) {\n        uint256[] memory tokenIds = new uint256[](listedTokens.length);\n        for (uint256 i = 0; i < listedTokens.length; i++) {\n            tokenIds[i] = listedTokens[i].nftID;\n        }\n        return tokenIds;\n    }\n\n    function getAllSoldTokens() public view returns (uint256[] memory) {\n        uint256[] memory tokenIds = new uint256[](soldTokens.length);\n        for (uint256 i = 0; i < soldTokens.length; i++) {\n            tokenIds[i] = soldTokens[i].nftID;\n        }\n        return tokenIds;\n\n    }\n    function removeToken(uint256 tokenId) public {\n        // find the index of the TokenData struct with the given token ID\n        uint256 index = 0;\n        bool found = false;\n        for (uint256 i = 0; i < listedTokens.length; i++) {\n        if (listedTokens[i].nftID == tokenId) {\n            index = i;\n            found = true;\n            break;\n        }\n    }\n    require(found, \"Token ID not found in tokenList\");\n        // remove the TokenData struct from the tokenList array\n        if (index < listedTokens.length - 1) {\n            listedTokens[index] = listedTokens[listedTokens.length - 1];\n        }\n        listedTokens.pop();\n    }   \n\n    function finalizeSale(uint256 _nftID) public {\n        require(address(this).balance >= purchaseAmount[_nftID], \"Insufficient funds to cover the purchase amount\");\n        require(inspectionPassed[_nftID], \"Car has not passed inspection\");\n        require(approval[_nftID][buyer[_nftID]], \"Buyer has not approved the sale\");\n        require(approval[_nftID][seller[_nftID]], \"Seller has not approved the sale\");\n\n        isListed[_nftID] = false;\n\n        (bool success,) = payable(seller[_nftID]).call{value: purchaseAmount[_nftID]}(\"\");\n        require(success, \"Failed to transfer funds to seller\");\n        removeToken(_nftID);\n        IERC721(nftAddress).transferFrom(address(this), buyer[_nftID], _nftID);\n\n        TokenData memory newToken = TokenData(_nftID, buyer[_nftID]);\n        soldTokens.push(newToken);\n\n        emit CarSold(_nftID, buyer[_nftID], seller[_nftID], purchaseAmount[_nftID]);\n    }\n\n    receive() external payable {}\n\n    function getBalance() public view returns (uint256) {\n        return (address(this).balance);\n    }\n}",
  "sourcePath": "/Users/keatonkrieger/Documents/Dev/PetrolTrader/truffle-app/contracts/dealership.sol",
  "compiler": {
    "name": "solc",
    "version": "0.8.19+commit.7dd6d404.Emscripten.clang"
  },
  "schemaVersion": "3.4.13",
  "updatedAt": "2023-04-25T23:06:47.950Z",
  "devdoc": {
    "kind": "dev",
    "methods": {},
    "version": 1
  },
  "userdoc": {
    "kind": "user",
    "methods": {},
    "version": 1
  }
}