{
  "contractName": "Dealership",
  "abi": [
    {
      "inputs": [
        {
          "internalType": "address",
          "name": "_nftAddress",
          "type": "address"
        }
      ],
      "stateMutability": "nonpayable",
      "type": "constructor"
    },
    {
      "anonymous": false,
      "inputs": [
        {
          "indexed": true,
          "internalType": "uint256",
          "name": "nftID",
          "type": "uint256"
        },
        {
          "indexed": true,
          "internalType": "address",
          "name": "buyer",
          "type": "address"
        },
        {
          "indexed": true,
          "internalType": "uint256",
          "name": "purchaseAmount",
          "type": "uint256"
        }
      ],
      "name": "CarBought",
      "type": "event"
    },
    {
      "anonymous": false,
      "inputs": [
        {
          "indexed": true,
          "internalType": "uint256",
          "name": "nftID",
          "type": "uint256"
        },
        {
          "indexed": false,
          "internalType": "bool",
          "name": "passed",
          "type": "bool"
        },
        {
          "indexed": false,
          "internalType": "address",
          "name": "inspector",
          "type": "address"
        }
      ],
      "name": "CarInspected",
      "type": "event"
    },
    {
      "anonymous": false,
      "inputs": [
        {
          "indexed": true,
          "internalType": "uint256",
          "name": "nftID",
          "type": "uint256"
        },
        {
          "indexed": true,
          "internalType": "address",
          "name": "seller",
          "type": "address"
        },
        {
          "indexed": false,
          "internalType": "uint256",
          "name": "listPrice",
          "type": "uint256"
        }
      ],
      "name": "CarListed",
      "type": "event"
    },
    {
      "anonymous": false,
      "inputs": [
        {
          "indexed": true,
          "internalType": "uint256",
          "name": "nftID",
          "type": "uint256"
        },
        {
          "indexed": true,
          "internalType": "address",
          "name": "buyer",
          "type": "address"
        },
        {
          "indexed": true,
          "internalType": "address",
          "name": "seller",
          "type": "address"
        },
        {
          "indexed": false,
          "internalType": "uint256",
          "name": "purchaseAmount",
          "type": "uint256"
        }
      ],
      "name": "CarSold",
      "type": "event"
    },
    {
      "anonymous": false,
      "inputs": [
        {
          "indexed": true,
          "internalType": "address",
          "name": "inspector",
          "type": "address"
        }
      ],
      "name": "InspectorAdded",
      "type": "event"
    },
    {
      "anonymous": false,
      "inputs": [
        {
          "indexed": true,
          "internalType": "address",
          "name": "inspector",
          "type": "address"
        }
      ],
      "name": "InspectorRemoved",
      "type": "event"
    },
    {
      "anonymous": false,
      "inputs": [
        {
          "indexed": true,
          "internalType": "uint256",
          "name": "nftID",
          "type": "uint256"
        },
        {
          "indexed": true,
          "internalType": "address",
          "name": "approver",
          "type": "address"
        }
      ],
      "name": "SaleApproved",
      "type": "event"
    },
    {
      "inputs": [
        {
          "internalType": "uint256",
          "name": "",
          "type": "uint256"
        },
        {
          "internalType": "address",
          "name": "",
          "type": "address"
        }
      ],
      "name": "approval",
      "outputs": [
        {
          "internalType": "bool",
          "name": "",
          "type": "bool"
        }
      ],
      "stateMutability": "view",
      "type": "function"
    },
    {
      "inputs": [
        {
          "internalType": "uint256",
          "name": "",
          "type": "uint256"
        }
      ],
      "name": "buyer",
      "outputs": [
        {
          "internalType": "address",
          "name": "",
          "type": "address"
        }
      ],
      "stateMutability": "view",
      "type": "function"
    },
    {
      "inputs": [],
      "name": "contractOwner",
      "outputs": [
        {
          "internalType": "address",
          "name": "",
          "type": "address"
        }
      ],
      "stateMutability": "view",
      "type": "function"
    },
    {
      "inputs": [
        {
          "internalType": "uint256",
          "name": "",
          "type": "uint256"
        }
      ],
      "name": "inspectionPassed",
      "outputs": [
        {
          "internalType": "bool",
          "name": "",
          "type": "bool"
        }
      ],
      "stateMutability": "view",
      "type": "function"
    },
    {
      "inputs": [
        {
          "internalType": "uint256",
          "name": "",
          "type": "uint256"
        }
      ],
      "name": "isListed",
      "outputs": [
        {
          "internalType": "bool",
          "name": "",
          "type": "bool"
        }
      ],
      "stateMutability": "view",
      "type": "function"
    },
    {
      "inputs": [
        {
          "internalType": "uint256",
          "name": "",
          "type": "uint256"
        }
      ],
      "name": "listedTokens",
      "outputs": [
        {
          "internalType": "uint256",
          "name": "nftID",
          "type": "uint256"
        },
        {
          "internalType": "address",
          "name": "owner",
          "type": "address"
        }
      ],
      "stateMutability": "view",
      "type": "function"
    },
    {
      "inputs": [],
      "name": "nftAddress",
      "outputs": [
        {
          "internalType": "address",
          "name": "",
          "type": "address"
        }
      ],
      "stateMutability": "view",
      "type": "function"
    },
    {
      "inputs": [
        {
          "internalType": "uint256",
          "name": "",
          "type": "uint256"
        }
      ],
      "name": "purchaseAmount",
      "outputs": [
        {
          "internalType": "uint256",
          "name": "",
          "type": "uint256"
        }
      ],
      "stateMutability": "view",
      "type": "function"
    },
    {
      "inputs": [
        {
          "internalType": "uint256",
          "name": "",
          "type": "uint256"
        }
      ],
      "name": "seller",
      "outputs": [
        {
          "internalType": "address",
          "name": "",
          "type": "address"
        }
      ],
      "stateMutability": "view",
      "type": "function"
    },
    {
      "inputs": [
        {
          "internalType": "uint256",
          "name": "",
          "type": "uint256"
        }
      ],
      "name": "soldTokens",
      "outputs": [
        {
          "internalType": "uint256",
          "name": "nftID",
          "type": "uint256"
        },
        {
          "internalType": "address",
          "name": "owner",
          "type": "address"
        }
      ],
      "stateMutability": "view",
      "type": "function"
    },
    {
      "stateMutability": "payable",
      "type": "receive"
    },
    {
      "inputs": [
        {
          "internalType": "uint256",
          "name": "_nftID",
          "type": "uint256"
        },
        {
          "internalType": "uint256",
          "name": "_listPrice",
          "type": "uint256"
        }
      ],
      "name": "listCar",
      "outputs": [],
      "stateMutability": "payable",
      "type": "function"
    },
    {
      "inputs": [
        {
          "internalType": "uint256",
          "name": "_nftID",
          "type": "uint256"
        }
      ],
      "name": "buyCar",
      "outputs": [],
      "stateMutability": "payable",
      "type": "function"
    },
    {
      "inputs": [
        {
          "internalType": "uint256",
          "name": "_nftID",
          "type": "uint256"
        },
        {
          "internalType": "bool",
          "name": "_passed",
          "type": "bool"
        }
      ],
      "name": "updatedInspectionStatus",
      "outputs": [],
      "stateMutability": "nonpayable",
      "type": "function"
    },
    {
      "inputs": [
        {
          "internalType": "address",
          "name": "_inspector",
          "type": "address"
        }
      ],
      "name": "addInspector",
      "outputs": [],
      "stateMutability": "nonpayable",
      "type": "function"
    },
    {
      "inputs": [
        {
          "internalType": "address",
          "name": "_inspector",
          "type": "address"
        }
      ],
      "name": "removeInspector",
      "outputs": [],
      "stateMutability": "nonpayable",
      "type": "function"
    },
    {
      "inputs": [
        {
          "internalType": "uint256",
          "name": "_nftID",
          "type": "uint256"
        }
      ],
      "name": "approveSale",
      "outputs": [],
      "stateMutability": "nonpayable",
      "type": "function"
    },
    {
      "inputs": [],
      "name": "getAllTokens",
      "outputs": [
        {
          "internalType": "uint256[]",
          "name": "",
          "type": "uint256[]"
        }
      ],
      "stateMutability": "view",
      "type": "function"
    },
    {
      "inputs": [],
      "name": "getAllSoldTokens",
      "outputs": [
        {
          "internalType": "uint256[]",
          "name": "",
          "type": "uint256[]"
        }
      ],
      "stateMutability": "view",
      "type": "function"
    },
    {
      "inputs": [
        {
          "internalType": "uint256",
          "name": "tokenId",
          "type": "uint256"
        }
      ],
      "name": "removeToken",
      "outputs": [],
      "stateMutability": "nonpayable",
      "type": "function"
    },
    {
      "inputs": [
        {
          "internalType": "uint256",
          "name": "_nftID",
          "type": "uint256"
        }
      ],
      "name": "finalizeSale",
      "outputs": [],
      "stateMutability": "nonpayable",
      "type": "function"
    },
    {
      "inputs": [],
      "name": "getBalance",
      "outputs": [
        {
          "internalType": "uint256",
          "name": "",
          "type": "uint256"
        }
      ],
      "stateMutability": "view",
      "type": "function"
    }
  ],
  "bytecode": "0x60806040523480156200001157600080fd5b506040516200272738038062002727833981810160405281019062000037919062000129565b806000806101000a81548173ffffffffffffffffffffffffffffffffffffffff021916908373ffffffffffffffffffffffffffffffffffffffff16021790555033600160006101000a81548173ffffffffffffffffffffffffffffffffffffffff021916908373ffffffffffffffffffffffffffffffffffffffff160217905550506200015b565b600080fd5b600073ffffffffffffffffffffffffffffffffffffffff82169050919050565b6000620000f182620000c4565b9050919050565b6200010381620000e4565b81146200010f57600080fd5b50565b6000815190506200012381620000f8565b92915050565b600060208284031215620001425762000141620000bf565b5b6000620001528482850162000112565b91505092915050565b6125bc806200016b6000396000f3fe60806040526004361061012e5760003560e01c80636c231060116100ab578063ad9ab8571161006f578063ad9ab857146103ed578063b848de351461042b578063cc8f070814610468578063ce606ee0146104a5578063fcce4883146104d0578063fe02c8a41461050d57610135565b80636c231060146103195780637c70e791146103355780637e4584921461035e578063aa92938014610387578063aacdfe6f146103b057610135565b80635a9d1ac3116100f25780635a9d1ac31461021f5780635bf8633a1461025d5780635eed5fff146102885780636266a46c146102c557806363b03bc2146102f057610135565b806312065fe01461013a57806314a72feb146101655780632a5c792a1461018e57806336c5d724146101b95780634dd4acaf146101e257610135565b3661013557005b600080fd5b34801561014657600080fd5b5061014f610529565b60405161015c9190611a9a565b60405180910390f35b34801561017157600080fd5b5061018c60048036038101906101879190611ae6565b610531565b005b34801561019a57600080fd5b506101a36105e1565b6040516101b09190611bd1565b60405180910390f35b3480156101c557600080fd5b506101e060048036038101906101db9190611ae6565b6106a5565b005b3480156101ee57600080fd5b5061020960048036038101906102049190611ae6565b610886565b6040516102169190611c34565b60405180910390f35b34801561022b57600080fd5b5061024660048036038101906102419190611ae6565b6108b9565b604051610254929190611c4f565b60405180910390f35b34801561026957600080fd5b5061027261090d565b60405161027f9190611c34565b60405180910390f35b34801561029457600080fd5b506102af60048036038101906102aa9190611ae6565b610931565b6040516102bc9190611c93565b60405180910390f35b3480156102d157600080fd5b506102da610951565b6040516102e79190611bd1565b60405180910390f35b3480156102fc57600080fd5b5061031760048036038101906103129190611cda565b610a15565b005b610333600480360381019061032e9190611ae6565b610b5e565b005b34801561034157600080fd5b5061035c60048036038101906103579190611d46565b610c61565b005b34801561036a57600080fd5b5061038560048036038101906103809190611d46565b610f00565b005b34801561039357600080fd5b506103ae60048036038101906103a99190611ae6565b611039565b005b3480156103bc57600080fd5b506103d760048036038101906103d29190611ae6565b61163d565b6040516103e49190611c34565b60405180910390f35b3480156103f957600080fd5b50610414600480360381019061040f9190611ae6565b611670565b604051610422929190611c4f565b60405180910390f35b34801561043757600080fd5b50610452600480360381019061044d9190611d73565b6116c4565b60405161045f9190611c93565b60405180910390f35b34801561047457600080fd5b5061048f600480360381019061048a9190611ae6565b6116f3565b60405161049c9190611a9a565b60405180910390f35b3480156104b157600080fd5b506104ba61170b565b6040516104c79190611c34565b60405180910390f35b3480156104dc57600080fd5b506104f760048036038101906104f29190611ae6565b611731565b6040516105049190611c93565b60405180910390f35b61052760048036038101906105229190611db3565b611751565b005b600047905090565b6001600a600083815260200190815260200160002060003373ffffffffffffffffffffffffffffffffffffffff1673ffffffffffffffffffffffffffffffffffffffff16815260200190815260200160002060006101000a81548160ff0219169083151502179055503373ffffffffffffffffffffffffffffffffffffffff16817f4dc60bf23e5a965cf059957e78d62c6c6cc8835ad6cea32928a940f447197cbc60405160405180910390a350565b6060600060038054905067ffffffffffffffff81111561060457610603611df3565b5b6040519080825280602002602001820160405280156106325781602001602082028036833780820191505090505b50905060005b60038054905081101561069d576003818154811061065957610658611e22565b5b90600052602060002090600202016000015482828151811061067e5761067d611e22565b5b602002602001018181525050808061069590611e80565b915050610638565b508091505090565b60008060005b6003805490508110156107035783600382815481106106cd576106cc611e22565b5b906000526020600020906002020160000154036106f05780925060019150610703565b80806106fb90611e80565b9150506106ab565b5080610744576040517f08c379a000000000000000000000000000000000000000000000000000000000815260040161073b90611f25565b60405180910390fd5b60016003805490506107569190611f45565b82101561082757600360016003805490506107719190611f45565b8154811061078257610781611e22565b5b9060005260206000209060020201600383815481106107a4576107a3611e22565b5b9060005260206000209060020201600082015481600001556001820160009054906101000a900473ffffffffffffffffffffffffffffffffffffffff168160010160006101000a81548173ffffffffffffffffffffffffffffffffffffffff021916908373ffffffffffffffffffffffffffffffffffffffff1602179055509050505b600380548061083957610838611f79565b5b60019003818190600052602060002090600202016000808201600090556001820160006101000a81549073ffffffffffffffffffffffffffffffffffffffff021916905550509055505050565b60076020528060005260406000206000915054906101000a900473ffffffffffffffffffffffffffffffffffffffff1681565b600381815481106108c957600080fd5b90600052602060002090600202016000915090508060000154908060010160009054906101000a900473ffffffffffffffffffffffffffffffffffffffff16905082565b60008054906101000a900473ffffffffffffffffffffffffffffffffffffffff1681565b60096020528060005260406000206000915054906101000a900460ff1681565b6060600060048054905067ffffffffffffffff81111561097457610973611df3565b5b6040519080825280602002602001820160405280156109a25781602001602082028036833780820191505090505b50905060005b600480549050811015610a0d57600481815481106109c9576109c8611e22565b5b9060005260206000209060020201600001548282815181106109ee576109ed611e22565b5b6020026020010181815250508080610a0590611e80565b9150506109a8565b508091505090565b6000805b600280549050811015610ab35760028181548110610a3a57610a39611e22565b5b9060005260206000200160009054906101000a900473ffffffffffffffffffffffffffffffffffffffff1673ffffffffffffffffffffffffffffffffffffffff163373ffffffffffffffffffffffffffffffffffffffff1603610aa05760019150610ab3565b8080610aab90611e80565b915050610a19565b5080610af4576040517f08c379a0000000000000000000000000000000000000000000000000000000008152600401610aeb9061201a565b60405180910390fd5b816009600085815260200190815260200160002060006101000a81548160ff021916908315150217905550827f1308e74752b9c14993be3f6f37d66bf3c725369088c619bdf852006b2264fa078333604051610b5192919061203a565b60405180910390a2505050565b6006600082815260200190815260200160002054341015610bb4576040517f08c379a0000000000000000000000000000000000000000000000000000000008152600401610bab906120af565b60405180910390fd5b336007600083815260200190815260200160002060006101000a81548173ffffffffffffffffffffffffffffffffffffffff021916908373ffffffffffffffffffffffffffffffffffffffff16021790555060066000828152602001908152602001600020543373ffffffffffffffffffffffffffffffffffffffff16827f449255b6c4c342abac892698c51419261f9fa9e44b181f0f2f31d40bf6d76b3f60405160405180910390a450565b600160009054906101000a900473ffffffffffffffffffffffffffffffffffffffff1673ffffffffffffffffffffffffffffffffffffffff163373ffffffffffffffffffffffffffffffffffffffff1614610cf1576040517f08c379a0000000000000000000000000000000000000000000000000000000008152600401610ce890612141565b60405180910390fd5b60005b600280549050811015610ec1578173ffffffffffffffffffffffffffffffffffffffff1660028281548110610d2c57610d2b611e22565b5b9060005260206000200160009054906101000a900473ffffffffffffffffffffffffffffffffffffffff1673ffffffffffffffffffffffffffffffffffffffff1603610eae5760026001600280549050610d869190611f45565b81548110610d9757610d96611e22565b5b9060005260206000200160009054906101000a900473ffffffffffffffffffffffffffffffffffffffff1660028281548110610dd657610dd5611e22565b5b9060005260206000200160006101000a81548173ffffffffffffffffffffffffffffffffffffffff021916908373ffffffffffffffffffffffffffffffffffffffff1602179055506002805480610e3057610e2f611f79565b5b6001900381819060005260206000200160006101000a81549073ffffffffffffffffffffffffffffffffffffffff021916905590558173ffffffffffffffffffffffffffffffffffffffff167f737c9e54b555afb1794817809534974cb61ead2136d82d4a8fecb34d0932922060405160405180910390a250610efd565b8080610eb990611e80565b915050610cf4565b506040517f08c379a0000000000000000000000000000000000000000000000000000000008152600401610ef4906121ad565b60405180910390fd5b50565b600160009054906101000a900473ffffffffffffffffffffffffffffffffffffffff1673ffffffffffffffffffffffffffffffffffffffff163373ffffffffffffffffffffffffffffffffffffffff1614610f90576040517f08c379a0000000000000000000000000000000000000000000000000000000008152600401610f8790612141565b60405180910390fd5b6002819080600181540180825580915050600190039060005260206000200160009091909190916101000a81548173ffffffffffffffffffffffffffffffffffffffff021916908373ffffffffffffffffffffffffffffffffffffffff1602179055508073ffffffffffffffffffffffffffffffffffffffff167f9ca2a3611f65b351a79d20d5314a16e37fe9b947d2a36232e101bd615994450360405160405180910390a250565b600660008281526020019081526020016000205447101561108f576040517f08c379a00000000000000000000000000000000000000000000000000000000081526004016110869061223f565b60405180910390fd5b6009600082815260200190815260200160002060009054906101000a900460ff166110ef576040517f08c379a00000000000000000000000000000000000000000000000000000000081526004016110e6906122ab565b60405180910390fd5b600a600082815260200190815260200160002060006007600084815260200190815260200160002060009054906101000a900473ffffffffffffffffffffffffffffffffffffffff1673ffffffffffffffffffffffffffffffffffffffff1673ffffffffffffffffffffffffffffffffffffffff16815260200190815260200160002060009054906101000a900460ff166111bf576040517f08c379a00000000000000000000000000000000000000000000000000000000081526004016111b690612317565b60405180910390fd5b600a600082815260200190815260200160002060006008600084815260200190815260200160002060009054906101000a900473ffffffffffffffffffffffffffffffffffffffff1673ffffffffffffffffffffffffffffffffffffffff1673ffffffffffffffffffffffffffffffffffffffff16815260200190815260200160002060009054906101000a900460ff1661128f576040517f08c379a000000000000000000000000000000000000000000000000000000000815260040161128690612383565b60405180910390fd5b60006005600083815260200190815260200160002060006101000a81548160ff02191690831515021790555060006008600083815260200190815260200160002060009054906101000a900473ffffffffffffffffffffffffffffffffffffffff1673ffffffffffffffffffffffffffffffffffffffff166006600084815260200190815260200160002054604051611327906123d4565b60006040518083038185875af1925050503d8060008114611364576040519150601f19603f3d011682016040523d82523d6000602084013e611369565b606091505b50509050806113ad576040517f08c379a00000000000000000000000000000000000000000000000000000000081526004016113a49061245b565b60405180910390fd5b6113b6826106a5565b60008054906101000a900473ffffffffffffffffffffffffffffffffffffffff1673ffffffffffffffffffffffffffffffffffffffff166323b872dd306007600086815260200190815260200160002060009054906101000a900473ffffffffffffffffffffffffffffffffffffffff16856040518463ffffffff1660e01b81526004016114469392919061247b565b600060405180830381600087803b15801561146057600080fd5b505af1158015611474573d6000803e3d6000fd5b50505050600060405180604001604052808481526020016007600086815260200190815260200160002060009054906101000a900473ffffffffffffffffffffffffffffffffffffffff1673ffffffffffffffffffffffffffffffffffffffff16815250905060048190806001815401808255809150506001900390600052602060002090600202016000909190919091506000820151816000015560208201518160010160006101000a81548173ffffffffffffffffffffffffffffffffffffffff021916908373ffffffffffffffffffffffffffffffffffffffff16021790555050506008600084815260200190815260200160002060009054906101000a900473ffffffffffffffffffffffffffffffffffffffff1673ffffffffffffffffffffffffffffffffffffffff166007600085815260200190815260200160002060009054906101000a900473ffffffffffffffffffffffffffffffffffffffff1673ffffffffffffffffffffffffffffffffffffffff16847f8205a71867f7292bcef9e53d4774758d6173b03f63017dec9a03a6664b429dc560066000888152602001908152602001600020546040516116309190611a9a565b60405180910390a4505050565b60086020528060005260406000206000915054906101000a900473ffffffffffffffffffffffffffffffffffffffff1681565b6004818154811061168057600080fd5b90600052602060002090600202016000915090508060000154908060010160009054906101000a900473ffffffffffffffffffffffffffffffffffffffff16905082565b600a6020528160005260406000206020528060005260406000206000915091509054906101000a900460ff1681565b60066020528060005260406000206000915090505481565b600160009054906101000a900473ffffffffffffffffffffffffffffffffffffffff1681565b60056020528060005260406000206000915054906101000a900460ff1681565b813373ffffffffffffffffffffffffffffffffffffffff1660008054906101000a900473ffffffffffffffffffffffffffffffffffffffff1673ffffffffffffffffffffffffffffffffffffffff16636352211e836040518263ffffffff1660e01b81526004016117c29190611a9a565b602060405180830381865afa1580156117df573d6000803e3d6000fd5b505050506040513d601f19601f8201168201806040525081019061180391906124c7565b73ffffffffffffffffffffffffffffffffffffffff1614611859576040517f08c379a000000000000000000000000000000000000000000000000000000000815260040161185090612566565b60405180910390fd5b336008600085815260200190815260200160002060006101000a81548173ffffffffffffffffffffffffffffffffffffffff021916908373ffffffffffffffffffffffffffffffffffffffff16021790555060008054906101000a900473ffffffffffffffffffffffffffffffffffffffff1673ffffffffffffffffffffffffffffffffffffffff166323b872dd3330866040518463ffffffff1660e01b81526004016119089392919061247b565b600060405180830381600087803b15801561192257600080fd5b505af1158015611936573d6000803e3d6000fd5b50505050600060405180604001604052808581526020013373ffffffffffffffffffffffffffffffffffffffff16815250905060038190806001815401808255809150506001900390600052602060002090600202016000909190919091506000820151816000015560208201518160010160006101000a81548173ffffffffffffffffffffffffffffffffffffffff021916908373ffffffffffffffffffffffffffffffffffffffff160217905550505060016005600086815260200190815260200160002060006101000a81548160ff0219169083151502179055508260066000868152602001908152602001600020819055503373ffffffffffffffffffffffffffffffffffffffff16847f346237025e4b201cfbdb8011c7afcd8a0cc16c50e910d6ac5645ab7406be429d85604051611a739190611a9a565b60405180910390a350505050565b6000819050919050565b611a9481611a81565b82525050565b6000602082019050611aaf6000830184611a8b565b92915050565b600080fd5b611ac381611a81565b8114611ace57600080fd5b50565b600081359050611ae081611aba565b92915050565b600060208284031215611afc57611afb611ab5565b5b6000611b0a84828501611ad1565b91505092915050565b600081519050919050565b600082825260208201905092915050565b6000819050602082019050919050565b611b4881611a81565b82525050565b6000611b5a8383611b3f565b60208301905092915050565b6000602082019050919050565b6000611b7e82611b13565b611b888185611b1e565b9350611b9383611b2f565b8060005b83811015611bc4578151611bab8882611b4e565b9750611bb683611b66565b925050600181019050611b97565b5085935050505092915050565b60006020820190508181036000830152611beb8184611b73565b905092915050565b600073ffffffffffffffffffffffffffffffffffffffff82169050919050565b6000611c1e82611bf3565b9050919050565b611c2e81611c13565b82525050565b6000602082019050611c496000830184611c25565b92915050565b6000604082019050611c646000830185611a8b565b611c716020830184611c25565b9392505050565b60008115159050919050565b611c8d81611c78565b82525050565b6000602082019050611ca86000830184611c84565b92915050565b611cb781611c78565b8114611cc257600080fd5b50565b600081359050611cd481611cae565b92915050565b60008060408385031215611cf157611cf0611ab5565b5b6000611cff85828601611ad1565b9250506020611d1085828601611cc5565b9150509250929050565b611d2381611c13565b8114611d2e57600080fd5b50565b600081359050611d4081611d1a565b92915050565b600060208284031215611d5c57611d5b611ab5565b5b6000611d6a84828501611d31565b91505092915050565b60008060408385031215611d8a57611d89611ab5565b5b6000611d9885828601611ad1565b9250506020611da985828601611d31565b9150509250929050565b60008060408385031215611dca57611dc9611ab5565b5b6000611dd885828601611ad1565b9250506020611de985828601611ad1565b9150509250929050565b7f4e487b7100000000000000000000000000000000000000000000000000000000600052604160045260246000fd5b7f4e487b7100000000000000000000000000000000000000000000000000000000600052603260045260246000fd5b7f4e487b7100000000000000000000000000000000000000000000000000000000600052601160045260246000fd5b6000611e8b82611a81565b91507fffffffffffffffffffffffffffffffffffffffffffffffffffffffffffffffff8203611ebd57611ebc611e51565b5b600182019050919050565b600082825260208201905092915050565b7f546f6b656e204944206e6f7420666f756e6420696e20746f6b656e4c69737400600082015250565b6000611f0f601f83611ec8565b9150611f1a82611ed9565b602082019050919050565b60006020820190508181036000830152611f3e81611f02565b9050919050565b6000611f5082611a81565b9150611f5b83611a81565b9250828203905081811115611f7357611f72611e51565b5b92915050565b7f4e487b7100000000000000000000000000000000000000000000000000000000600052603160045260246000fd5b7f4f6e6c7920696e73706563746f72732063616e2063616c6c2074686973206d6560008201527f74686f6400000000000000000000000000000000000000000000000000000000602082015250565b6000612004602483611ec8565b915061200f82611fa8565b604082019050919050565b6000602082019050818103600083015261203381611ff7565b9050919050565b600060408201905061204f6000830185611c84565b61205c6020830184611c25565b9392505050565b7f496e73756666696369656e74207061796d656e74000000000000000000000000600082015250565b6000612099601483611ec8565b91506120a482612063565b602082019050919050565b600060208201905081810360008301526120c88161208c565b9050919050565b7f4f6e6c7920636f6e7472616374206f776e65722063616e2063616c6c2074686960008201527f732066756e6374696f6e2e000000000000000000000000000000000000000000602082015250565b600061212b602b83611ec8565b9150612136826120cf565b604082019050919050565b6000602082019050818103600083015261215a8161211e565b9050919050565b7f496e73706563746f72206e6f7420666f756e6400000000000000000000000000600082015250565b6000612197601383611ec8565b91506121a282612161565b602082019050919050565b600060208201905081810360008301526121c68161218a565b9050919050565b7f496e73756666696369656e742066756e647320746f20636f766572207468652060008201527f707572636861736520616d6f756e740000000000000000000000000000000000602082015250565b6000612229602f83611ec8565b9150612234826121cd565b604082019050919050565b600060208201905081810360008301526122588161221c565b9050919050565b7f43617220686173206e6f742070617373656420696e7370656374696f6e000000600082015250565b6000612295601d83611ec8565b91506122a08261225f565b602082019050919050565b600060208201905081810360008301526122c481612288565b9050919050565b7f427579657220686173206e6f7420617070726f766564207468652073616c6500600082015250565b6000612301601f83611ec8565b915061230c826122cb565b602082019050919050565b60006020820190508181036000830152612330816122f4565b9050919050565b7f53656c6c657220686173206e6f7420617070726f766564207468652073616c65600082015250565b600061236d602083611ec8565b915061237882612337565b602082019050919050565b6000602082019050818103600083015261239c81612360565b9050919050565b600081905092915050565b50565b60006123be6000836123a3565b91506123c9826123ae565b600082019050919050565b60006123df826123b1565b9150819050919050565b7f4661696c656420746f207472616e736665722066756e647320746f2073656c6c60008201527f6572000000000000000000000000000000000000000000000000000000000000602082015250565b6000612445602283611ec8565b9150612450826123e9565b604082019050919050565b6000602082019050818103600083015261247481612438565b9050919050565b60006060820190506124906000830186611c25565b61249d6020830185611c25565b6124aa6040830184611a8b565b949350505050565b6000815190506124c181611d1a565b92915050565b6000602082840312156124dd576124dc611ab5565b5b60006124eb848285016124b2565b91505092915050565b7f596f7520617265206e6f7420746865206f776e6572206f662074686973204e4660008201527f542e000000000000000000000000000000000000000000000000000000000000602082015250565b6000612550602283611ec8565b915061255b826124f4565b604082019050919050565b6000602082019050818103600083015261257f81612543565b905091905056fea264697066735822122052bcfbc4e0fd3e69fe2b3b4ce92c04508bd04989f6c246221dec271dc5e35ace64736f6c63430008130033",
  "immutableReferences": {},
  "source": "// SPDX-License-Identifier: GPL-3.0\n\npragma solidity >=0.7.0 <0.9.0;\n\ninterface IERC721 {\n    function ownerOf(uint256 tokenId) external view returns (address owner);\n\n    function transferFrom(\n        address _from,\n        address _to,\n        uint256 _id\n    ) external;\n}\n\ncontract Dealership {\n    event CarListed(uint256 indexed nftID, address indexed seller, uint256 listPrice);\n    event CarBought(uint256 indexed nftID, address indexed buyer, uint256 indexed purchaseAmount);\n    event CarSold(uint256 indexed nftID, address indexed buyer, address indexed seller, uint256 purchaseAmount);\n    event CarInspected(uint indexed nftID, bool passed, address inspector);\n    event SaleApproved(uint indexed nftID, address indexed approver);\n    event InspectorAdded(address indexed inspector);\n    event InspectorRemoved(address indexed inspector);\n\n    address public nftAddress;\n    address public contractOwner;\n    address[] private inspectors;\n    \n    struct TokenData {\n        uint256 nftID;\n        address owner;\n    }\n\n    TokenData[] public listedTokens;\n    TokenData[] public soldTokens;\n\n\n    modifier onlyBuyer(uint256 _nftID) {\n        require(msg.sender == buyer[_nftID], \"Only buyer can call this method.\");\n        _;\n    }\n    modifier onlyOwner(uint256 tokenId) {\n        require(IERC721(nftAddress).ownerOf(tokenId) == msg.sender, \"You are not the owner of this NFT.\");\n        _;\n    }\n\n    modifier onlyContractOwner() {\n        require(msg.sender == contractOwner, \"Only contract owner can call this function.\");\n        _;\n    }\n\n    modifier onlyInspector() {\n        bool isInArray = false;\n        for (uint i = 0; i < inspectors.length; i++) {\n            if (msg.sender == inspectors[i]) {\n                isInArray = true;\n                break;\n            }\n        }\n        require(isInArray, \"Only inspectors can call this method\");\n        _;\n    }\n\n    mapping (uint256 => bool) public isListed;\n    mapping (uint256 => uint) public purchaseAmount;\n    mapping (uint256 => address) public buyer;\n    mapping (uint256 => address) public seller;\n    mapping (uint256 => bool) public inspectionPassed;\n    mapping(uint256 => mapping(address => bool)) public approval;\n\n    constructor(\n        address _nftAddress\n    ) {\n        nftAddress = _nftAddress;\n        contractOwner = msg.sender;\n    }\n\n    function listCar(uint256 _nftID, uint256 _listPrice) public payable onlyOwner(_nftID) {\n        seller[_nftID] = msg.sender;\n        IERC721(nftAddress).transferFrom(msg.sender, address(this), _nftID);\n        TokenData memory newToken = TokenData(_nftID, msg.sender);\n        listedTokens.push(newToken);\n        isListed[_nftID] = true;\n        purchaseAmount[_nftID] = _listPrice;\n\n        emit CarListed(_nftID, msg.sender, _listPrice);\n    }   \n\n    function buyCar(uint256 _nftID) public payable {\n        require(msg.value >= purchaseAmount[_nftID], \"Insufficient payment\");\n        buyer[_nftID] = msg.sender;\n\n        emit CarBought(_nftID, msg.sender, purchaseAmount[_nftID]);\n    }\n\n    function updatedInspectionStatus(uint256 _nftID, bool _passed) public onlyInspector {\n        inspectionPassed[_nftID] = _passed;\n\n        emit CarInspected(_nftID, _passed, msg.sender);\n    }\n\n    function addInspector(address _inspector) public onlyContractOwner{\n        inspectors.push(_inspector);\n        emit InspectorAdded(_inspector);\n    }\n\n    function removeInspector(address _inspector) public onlyContractOwner {\n        for (uint256 i = 0; i < inspectors.length; i++) {\n            if (inspectors[i] == _inspector) {\n                inspectors[i] = inspectors[inspectors.length - 1];\n                inspectors.pop();\n                emit InspectorRemoved(_inspector);\n                return;\n            }\n        }\n        revert(\"Inspector not found\");\n    }\n\n    function approveSale(uint256 _nftID) public {\n        approval[_nftID][msg.sender] = true;\n\n        emit SaleApproved(_nftID, msg.sender);\n    }\n\n    function getAllTokens() public view returns (uint256[] memory) {\n        uint256[] memory tokenIds = new uint256[](listedTokens.length);\n        for (uint256 i = 0; i < listedTokens.length; i++) {\n            tokenIds[i] = listedTokens[i].nftID;\n        }\n        return tokenIds;\n    }\n\n    function getAllSoldTokens() public view returns (uint256[] memory) {\n        uint256[] memory tokenIds = new uint256[](soldTokens.length);\n        for (uint256 i = 0; i < soldTokens.length; i++) {\n            tokenIds[i] = soldTokens[i].nftID;\n        }\n        return tokenIds;\n\n    }\n    function removeToken(uint256 tokenId) public {\n        // find the index of the TokenData struct with the given token ID\n        uint256 index = 0;\n        bool found = false;\n        for (uint256 i = 0; i < listedTokens.length; i++) {\n        if (listedTokens[i].nftID == tokenId) {\n            index = i;\n            found = true;\n            break;\n        }\n    }\n    require(found, \"Token ID not found in tokenList\");\n        // remove the TokenData struct from the tokenList array\n        if (index < listedTokens.length - 1) {\n            listedTokens[index] = listedTokens[listedTokens.length - 1];\n        }\n        listedTokens.pop();\n    }   \n\n    function finalizeSale(uint256 _nftID) public {\n        require(address(this).balance >= purchaseAmount[_nftID], \"Insufficient funds to cover the purchase amount\");\n        require(inspectionPassed[_nftID], \"Car has not passed inspection\");\n        require(approval[_nftID][buyer[_nftID]], \"Buyer has not approved the sale\");\n        require(approval[_nftID][seller[_nftID]], \"Seller has not approved the sale\");\n\n        isListed[_nftID] = false;\n\n        (bool success,) = payable(seller[_nftID]).call{value: purchaseAmount[_nftID]}(\"\");\n        require(success, \"Failed to transfer funds to seller\");\n        removeToken(_nftID);\n        IERC721(nftAddress).transferFrom(address(this), buyer[_nftID], _nftID);\n\n        TokenData memory newToken = TokenData(_nftID, buyer[_nftID]);\n        soldTokens.push(newToken);\n\n        emit CarSold(_nftID, buyer[_nftID], seller[_nftID], purchaseAmount[_nftID]);\n    }\n\n    receive() external payable {}\n\n    function getBalance() public view returns (uint256) {\n        return (address(this).balance);\n    }\n}",
  "sourcePath": "/Users/keatonkrieger/Documents/Dev/PetrolTrader/truffle-app/contracts/dealership.sol",
  "compiler": {
    "name": "solc",
    "version": "0.8.19+commit.7dd6d404.Emscripten.clang"
  },
  "schemaVersion": "3.4.13",
  "updatedAt": "2023-04-28T18:29:31.577Z",
  "devdoc": {
    "kind": "dev",
    "methods": {},
    "version": 1
  },
  "userdoc": {
    "kind": "user",
    "methods": {},
    "version": 1
  }
}