{
  "contractName": "Dealership",
  "abi": [
    {
      "inputs": [
        {
          "internalType": "address",
          "name": "_nftAddress",
          "type": "address"
        },
        {
          "internalType": "address",
          "name": "_inspector",
          "type": "address"
        }
      ],
      "stateMutability": "nonpayable",
      "type": "constructor"
    },
    {
      "inputs": [
        {
          "internalType": "uint256",
          "name": "",
          "type": "uint256"
        },
        {
          "internalType": "address",
          "name": "",
          "type": "address"
        }
      ],
      "name": "approval",
      "outputs": [
        {
          "internalType": "bool",
          "name": "",
          "type": "bool"
        }
      ],
      "stateMutability": "view",
      "type": "function"
    },
    {
      "inputs": [
        {
          "internalType": "uint256",
          "name": "",
          "type": "uint256"
        }
      ],
      "name": "buyer",
      "outputs": [
        {
          "internalType": "address",
          "name": "",
          "type": "address"
        }
      ],
      "stateMutability": "view",
      "type": "function"
    },
    {
      "inputs": [
        {
          "internalType": "uint256",
          "name": "",
          "type": "uint256"
        }
      ],
      "name": "inspectionPassed",
      "outputs": [
        {
          "internalType": "bool",
          "name": "",
          "type": "bool"
        }
      ],
      "stateMutability": "view",
      "type": "function"
    },
    {
      "inputs": [],
      "name": "inspector",
      "outputs": [
        {
          "internalType": "address",
          "name": "",
          "type": "address"
        }
      ],
      "stateMutability": "view",
      "type": "function"
    },
    {
      "inputs": [
        {
          "internalType": "uint256",
          "name": "",
          "type": "uint256"
        }
      ],
      "name": "isListed",
      "outputs": [
        {
          "internalType": "bool",
          "name": "",
          "type": "bool"
        }
      ],
      "stateMutability": "view",
      "type": "function"
    },
    {
      "inputs": [
        {
          "internalType": "uint256",
          "name": "",
          "type": "uint256"
        }
      ],
      "name": "listedTokens",
      "outputs": [
        {
          "internalType": "uint256",
          "name": "nftID",
          "type": "uint256"
        },
        {
          "internalType": "address",
          "name": "owner",
          "type": "address"
        }
      ],
      "stateMutability": "view",
      "type": "function"
    },
    {
      "inputs": [],
      "name": "nftAddress",
      "outputs": [
        {
          "internalType": "address",
          "name": "",
          "type": "address"
        }
      ],
      "stateMutability": "view",
      "type": "function"
    },
    {
      "inputs": [
        {
          "internalType": "uint256",
          "name": "",
          "type": "uint256"
        }
      ],
      "name": "purchaseAmount",
      "outputs": [
        {
          "internalType": "uint256",
          "name": "",
          "type": "uint256"
        }
      ],
      "stateMutability": "view",
      "type": "function"
    },
    {
      "inputs": [
        {
          "internalType": "uint256",
          "name": "",
          "type": "uint256"
        }
      ],
      "name": "seller",
      "outputs": [
        {
          "internalType": "address",
          "name": "",
          "type": "address"
        }
      ],
      "stateMutability": "view",
      "type": "function"
    },
    {
      "stateMutability": "payable",
      "type": "receive"
    },
    {
      "inputs": [
        {
          "internalType": "uint256",
          "name": "_nftID",
          "type": "uint256"
        },
        {
          "internalType": "uint256",
          "name": "_listPrice",
          "type": "uint256"
        }
      ],
      "name": "listCar",
      "outputs": [],
      "stateMutability": "payable",
      "type": "function"
    },
    {
      "inputs": [
        {
          "internalType": "uint256",
          "name": "_nftID",
          "type": "uint256"
        }
      ],
      "name": "buyCar",
      "outputs": [],
      "stateMutability": "payable",
      "type": "function"
    },
    {
      "inputs": [
        {
          "internalType": "uint256",
          "name": "_nftID",
          "type": "uint256"
        },
        {
          "internalType": "bool",
          "name": "_passed",
          "type": "bool"
        }
      ],
      "name": "updatedInspectionStatus",
      "outputs": [],
      "stateMutability": "nonpayable",
      "type": "function"
    },
    {
      "inputs": [
        {
          "internalType": "uint256",
          "name": "_nftID",
          "type": "uint256"
        }
      ],
      "name": "approveSale",
      "outputs": [],
      "stateMutability": "nonpayable",
      "type": "function"
    },
    {
      "inputs": [],
      "name": "getAllTokens",
      "outputs": [
        {
          "internalType": "uint256[]",
          "name": "",
          "type": "uint256[]"
        }
      ],
      "stateMutability": "view",
      "type": "function"
    },
    {
      "inputs": [
        {
          "internalType": "uint256",
          "name": "tokenId",
          "type": "uint256"
        }
      ],
      "name": "removeToken",
      "outputs": [],
      "stateMutability": "nonpayable",
      "type": "function"
    },
    {
      "inputs": [
        {
          "internalType": "uint256",
          "name": "_nftID",
          "type": "uint256"
        }
      ],
      "name": "finalizeSale",
      "outputs": [],
      "stateMutability": "nonpayable",
      "type": "function"
    },
    {
      "inputs": [],
      "name": "getBalance",
      "outputs": [
        {
          "internalType": "uint256",
          "name": "",
          "type": "uint256"
        }
      ],
      "stateMutability": "view",
      "type": "function"
    }
  ],
  "bytecode": "0x60806040523480156200001157600080fd5b5060405162001ba038038062001ba083398181016040528101906200003791906200012a565b816000806101000a81548173ffffffffffffffffffffffffffffffffffffffff021916908373ffffffffffffffffffffffffffffffffffffffff16021790555080600160006101000a81548173ffffffffffffffffffffffffffffffffffffffff021916908373ffffffffffffffffffffffffffffffffffffffff160217905550505062000171565b600080fd5b600073ffffffffffffffffffffffffffffffffffffffff82169050919050565b6000620000f282620000c5565b9050919050565b6200010481620000e5565b81146200011057600080fd5b50565b6000815190506200012481620000f9565b92915050565b60008060408385031215620001445762000143620000c0565b5b6000620001548582860162000113565b9250506020620001678582860162000113565b9150509250929050565b611a1f80620001816000396000f3fe6080604052600436106101025760003560e01c806363b03bc211610095578063b848de3511610064578063b848de3514610344578063cc8f070814610381578063ed2cee9e146103be578063fcce4883146103e9578063fe02c8a41461042657610109565b806363b03bc2146102995780636c231060146102c2578063aa929380146102de578063aacdfe6f1461030757610109565b80634dd4acaf116100d15780634dd4acaf146101b65780635a9d1ac3146101f35780635bf8633a146102315780635eed5fff1461025c57610109565b806312065fe01461010e57806314a72feb146101395780632a5c792a1461016257806336c5d7241461018d57610109565b3661010957005b600080fd5b34801561011a57600080fd5b50610123610442565b60405161013091906110bd565b60405180910390f35b34801561014557600080fd5b50610160600480360381019061015b9190611109565b61044a565b005b34801561016e57600080fd5b506101776104b6565b60405161018491906111f4565b60405180910390f35b34801561019957600080fd5b506101b460048036038101906101af9190611109565b61057a565b005b3480156101c257600080fd5b506101dd60048036038101906101d89190611109565b61075b565b6040516101ea9190611257565b60405180910390f35b3480156101ff57600080fd5b5061021a60048036038101906102159190611109565b61078e565b604051610228929190611272565b60405180910390f35b34801561023d57600080fd5b506102466107e2565b6040516102539190611257565b60405180910390f35b34801561026857600080fd5b50610283600480360381019061027e9190611109565b610806565b60405161029091906112b6565b60405180910390f35b3480156102a557600080fd5b506102c060048036038101906102bb91906112fd565b610826565b005b6102dc60048036038101906102d79190611109565b6108e5565b005b3480156102ea57600080fd5b5061030560048036038101906103009190611109565b610990565b005b34801561031357600080fd5b5061032e60048036038101906103299190611109565b610d03565b60405161033b9190611257565b60405180910390f35b34801561035057600080fd5b5061036b60048036038101906103669190611369565b610d36565b60405161037891906112b6565b60405180910390f35b34801561038d57600080fd5b506103a860048036038101906103a39190611109565b610d65565b6040516103b591906110bd565b60405180910390f35b3480156103ca57600080fd5b506103d3610d7d565b6040516103e09190611257565b60405180910390f35b3480156103f557600080fd5b50610410600480360381019061040b9190611109565b610da3565b60405161041d91906112b6565b60405180910390f35b610440600480360381019061043b91906113a9565b610dc3565b005b600047905090565b60016008600083815260200190815260200160002060003373ffffffffffffffffffffffffffffffffffffffff1673ffffffffffffffffffffffffffffffffffffffff16815260200190815260200160002060006101000a81548160ff02191690831515021790555050565b6060600060028054905067ffffffffffffffff8111156104d9576104d86113e9565b5b6040519080825280602002602001820160405280156105075781602001602082028036833780820191505090505b50905060005b600280549050811015610572576002818154811061052e5761052d611418565b5b90600052602060002090600202016000015482828151811061055357610552611418565b5b602002602001018181525050808061056a90611476565b91505061050d565b508091505090565b60008060005b6002805490508110156105d85783600282815481106105a2576105a1611418565b5b906000526020600020906002020160000154036105c557809250600191506105d8565b80806105d090611476565b915050610580565b5080610619576040517f08c379a00000000000000000000000000000000000000000000000000000000081526004016106109061151b565b60405180910390fd5b600160028054905061062b919061153b565b8210156106fc5760026001600280549050610646919061153b565b8154811061065757610656611418565b5b90600052602060002090600202016002838154811061067957610678611418565b5b9060005260206000209060020201600082015481600001556001820160009054906101000a900473ffffffffffffffffffffffffffffffffffffffff168160010160006101000a81548173ffffffffffffffffffffffffffffffffffffffff021916908373ffffffffffffffffffffffffffffffffffffffff1602179055509050505b600280548061070e5761070d61156f565b5b60019003818190600052602060002090600202016000808201600090556001820160006101000a81549073ffffffffffffffffffffffffffffffffffffffff021916905550509055505050565b60056020528060005260406000206000915054906101000a900473ffffffffffffffffffffffffffffffffffffffff1681565b6002818154811061079e57600080fd5b90600052602060002090600202016000915090508060000154908060010160009054906101000a900473ffffffffffffffffffffffffffffffffffffffff16905082565b60008054906101000a900473ffffffffffffffffffffffffffffffffffffffff1681565b60076020528060005260406000206000915054906101000a900460ff1681565b600160009054906101000a900473ffffffffffffffffffffffffffffffffffffffff1673ffffffffffffffffffffffffffffffffffffffff163373ffffffffffffffffffffffffffffffffffffffff16146108b6576040517f08c379a00000000000000000000000000000000000000000000000000000000081526004016108ad90611610565b60405180910390fd5b806007600084815260200190815260200160002060006101000a81548160ff0219169083151502179055505050565b600460008281526020019081526020016000205434101561093b576040517f08c379a00000000000000000000000000000000000000000000000000000000081526004016109329061167c565b60405180910390fd5b336005600083815260200190815260200160002060006101000a81548173ffffffffffffffffffffffffffffffffffffffff021916908373ffffffffffffffffffffffffffffffffffffffff16021790555050565b6007600082815260200190815260200160002060009054906101000a900460ff166109f0576040517f08c379a00000000000000000000000000000000000000000000000000000000081526004016109e7906116e8565b60405180910390fd5b6008600082815260200190815260200160002060006005600084815260200190815260200160002060009054906101000a900473ffffffffffffffffffffffffffffffffffffffff1673ffffffffffffffffffffffffffffffffffffffff1673ffffffffffffffffffffffffffffffffffffffff16815260200190815260200160002060009054906101000a900460ff16610ac0576040517f08c379a0000000000000000000000000000000000000000000000000000000008152600401610ab790611754565b60405180910390fd5b6004600082815260200190815260200160002054471015610b16576040517f08c379a0000000000000000000000000000000000000000000000000000000008152600401610b0d906117e6565b60405180910390fd5b60006003600083815260200190815260200160002060006101000a81548160ff02191690831515021790555060006006600083815260200190815260200160002060009054906101000a900473ffffffffffffffffffffffffffffffffffffffff1673ffffffffffffffffffffffffffffffffffffffff166004600084815260200190815260200160002054604051610bae90611837565b60006040518083038185875af1925050503d8060008114610beb576040519150601f19603f3d011682016040523d82523d6000602084013e610bf0565b606091505b5050905080610c34576040517f08c379a0000000000000000000000000000000000000000000000000000000008152600401610c2b906118be565b60405180910390fd5b610c3d8261057a565b60008054906101000a900473ffffffffffffffffffffffffffffffffffffffff1673ffffffffffffffffffffffffffffffffffffffff166323b872dd306005600086815260200190815260200160002060009054906101000a900473ffffffffffffffffffffffffffffffffffffffff16856040518463ffffffff1660e01b8152600401610ccd939291906118de565b600060405180830381600087803b158015610ce757600080fd5b505af1158015610cfb573d6000803e3d6000fd5b505050505050565b60066020528060005260406000206000915054906101000a900473ffffffffffffffffffffffffffffffffffffffff1681565b60086020528160005260406000206020528060005260406000206000915091509054906101000a900460ff1681565b60046020528060005260406000206000915090505481565b600160009054906101000a900473ffffffffffffffffffffffffffffffffffffffff1681565b60036020528060005260406000206000915054906101000a900460ff1681565b813373ffffffffffffffffffffffffffffffffffffffff1660008054906101000a900473ffffffffffffffffffffffffffffffffffffffff1673ffffffffffffffffffffffffffffffffffffffff16636352211e836040518263ffffffff1660e01b8152600401610e3491906110bd565b602060405180830381865afa158015610e51573d6000803e3d6000fd5b505050506040513d601f19601f82011682018060405250810190610e75919061192a565b73ffffffffffffffffffffffffffffffffffffffff1614610ecb576040517f08c379a0000000000000000000000000000000000000000000000000000000008152600401610ec2906119c9565b60405180910390fd5b336006600085815260200190815260200160002060006101000a81548173ffffffffffffffffffffffffffffffffffffffff021916908373ffffffffffffffffffffffffffffffffffffffff16021790555060008054906101000a900473ffffffffffffffffffffffffffffffffffffffff1673ffffffffffffffffffffffffffffffffffffffff166323b872dd3330866040518463ffffffff1660e01b8152600401610f7a939291906118de565b600060405180830381600087803b158015610f9457600080fd5b505af1158015610fa8573d6000803e3d6000fd5b50505050600060405180604001604052808581526020013373ffffffffffffffffffffffffffffffffffffffff16815250905060028190806001815401808255809150506001900390600052602060002090600202016000909190919091506000820151816000015560208201518160010160006101000a81548173ffffffffffffffffffffffffffffffffffffffff021916908373ffffffffffffffffffffffffffffffffffffffff160217905550505060016003600086815260200190815260200160002060006101000a81548160ff02191690831515021790555082600460008681526020019081526020016000208190555050505050565b6000819050919050565b6110b7816110a4565b82525050565b60006020820190506110d260008301846110ae565b92915050565b600080fd5b6110e6816110a4565b81146110f157600080fd5b50565b600081359050611103816110dd565b92915050565b60006020828403121561111f5761111e6110d8565b5b600061112d848285016110f4565b91505092915050565b600081519050919050565b600082825260208201905092915050565b6000819050602082019050919050565b61116b816110a4565b82525050565b600061117d8383611162565b60208301905092915050565b6000602082019050919050565b60006111a182611136565b6111ab8185611141565b93506111b683611152565b8060005b838110156111e75781516111ce8882611171565b97506111d983611189565b9250506001810190506111ba565b5085935050505092915050565b6000602082019050818103600083015261120e8184611196565b905092915050565b600073ffffffffffffffffffffffffffffffffffffffff82169050919050565b600061124182611216565b9050919050565b61125181611236565b82525050565b600060208201905061126c6000830184611248565b92915050565b600060408201905061128760008301856110ae565b6112946020830184611248565b9392505050565b60008115159050919050565b6112b08161129b565b82525050565b60006020820190506112cb60008301846112a7565b92915050565b6112da8161129b565b81146112e557600080fd5b50565b6000813590506112f7816112d1565b92915050565b60008060408385031215611314576113136110d8565b5b6000611322858286016110f4565b9250506020611333858286016112e8565b9150509250929050565b61134681611236565b811461135157600080fd5b50565b6000813590506113638161133d565b92915050565b600080604083850312156113805761137f6110d8565b5b600061138e858286016110f4565b925050602061139f85828601611354565b9150509250929050565b600080604083850312156113c0576113bf6110d8565b5b60006113ce858286016110f4565b92505060206113df858286016110f4565b9150509250929050565b7f4e487b7100000000000000000000000000000000000000000000000000000000600052604160045260246000fd5b7f4e487b7100000000000000000000000000000000000000000000000000000000600052603260045260246000fd5b7f4e487b7100000000000000000000000000000000000000000000000000000000600052601160045260246000fd5b6000611481826110a4565b91507fffffffffffffffffffffffffffffffffffffffffffffffffffffffffffffffff82036114b3576114b2611447565b5b600182019050919050565b600082825260208201905092915050565b7f546f6b656e204944206e6f7420666f756e6420696e20746f6b656e4c69737400600082015250565b6000611505601f836114be565b9150611510826114cf565b602082019050919050565b60006020820190508181036000830152611534816114f8565b9050919050565b6000611546826110a4565b9150611551836110a4565b925082820390508181111561156957611568611447565b5b92915050565b7f4e487b7100000000000000000000000000000000000000000000000000000000600052603160045260246000fd5b7f4f6e6c7920696e73706563746f722063616e2063616c6c2074686973206d657460008201527f686f640000000000000000000000000000000000000000000000000000000000602082015250565b60006115fa6023836114be565b91506116058261159e565b604082019050919050565b60006020820190508181036000830152611629816115ed565b9050919050565b7f496e73756666696369656e74207061796d656e74000000000000000000000000600082015250565b60006116666014836114be565b915061167182611630565b602082019050919050565b6000602082019050818103600083015261169581611659565b9050919050565b7f43617220686173206e6f742070617373656420696e7370656374696f6e000000600082015250565b60006116d2601d836114be565b91506116dd8261169c565b602082019050919050565b60006020820190508181036000830152611701816116c5565b9050919050565b7f427579657220686173206e6f7420617070726f766564207468652073616c6500600082015250565b600061173e601f836114be565b915061174982611708565b602082019050919050565b6000602082019050818103600083015261176d81611731565b9050919050565b7f496e73756666696369656e742066756e647320746f20636f766572207468652060008201527f707572636861736520616d6f756e740000000000000000000000000000000000602082015250565b60006117d0602f836114be565b91506117db82611774565b604082019050919050565b600060208201905081810360008301526117ff816117c3565b9050919050565b600081905092915050565b50565b6000611821600083611806565b915061182c82611811565b600082019050919050565b600061184282611814565b9150819050919050565b7f4661696c656420746f207472616e736665722066756e647320746f2073656c6c60008201527f6572000000000000000000000000000000000000000000000000000000000000602082015250565b60006118a86022836114be565b91506118b38261184c565b604082019050919050565b600060208201905081810360008301526118d78161189b565b9050919050565b60006060820190506118f36000830186611248565b6119006020830185611248565b61190d60408301846110ae565b949350505050565b6000815190506119248161133d565b92915050565b6000602082840312156119405761193f6110d8565b5b600061194e84828501611915565b91505092915050565b7f596f7520617265206e6f7420746865206f776e6572206f662074686973204e4660008201527f542e000000000000000000000000000000000000000000000000000000000000602082015250565b60006119b36022836114be565b91506119be82611957565b604082019050919050565b600060208201905081810360008301526119e2816119a6565b905091905056fea2646970667358221220eb9392484cc1c41d5c5d40fe20734d659d3dc62918e987f99cdb1a2a0894ccef64736f6c63430008130033",
  "immutableReferences": {},
  "source": "// SPDX-License-Identifier: GPL-3.0\n\npragma solidity >=0.7.0 <0.9.0;\n\ninterface IERC721 {\n    function ownerOf(uint256 tokenId) external view returns (address owner);\n\n    function transferFrom(\n        address _from,\n        address _to,\n        uint256 _id\n    ) external;\n}\n\ncontract Dealership {\n    address public nftAddress;\n    address public inspector;\n\nstruct TokenData {\n    uint256 nftID;\n    address owner;\n}\n\nTokenData[] public listedTokens;\n\n\n    modifier onlyBuyer(uint256 _nftID) {\n        require(msg.sender == buyer[_nftID], \"Only buyer can call this method\");\n        _;\n    }\n    modifier onlyOwner(uint256 tokenId) {\n        require(IERC721(nftAddress).ownerOf(tokenId) == msg.sender, \"You are not the owner of this NFT.\");\n        _;\n    }\n    modifier onlyInspector() {\n        require(msg.sender == inspector, \"Only inspector can call this method\");\n        _;\n    }\n\n    mapping (uint256 => bool) public isListed;\n    mapping (uint256 => uint) public purchaseAmount;\n    mapping (uint256 => address) public buyer;\n    mapping (uint256 => address) public seller;\n    mapping (uint256 => bool) public inspectionPassed;\n    mapping(uint256 => mapping(address => bool)) public approval;\n\n    constructor(\n        address _nftAddress,\n        address _inspector\n        ) {\n        nftAddress = _nftAddress;\n        inspector = _inspector;\n    }\n\n    function listCar(uint256 _nftID, uint256 _listPrice) public payable onlyOwner(_nftID) {\n        seller[_nftID] = msg.sender;\n        IERC721(nftAddress).transferFrom(msg.sender, address(this), _nftID);\n        TokenData memory newToken = TokenData(_nftID, msg.sender);\n        listedTokens.push(newToken);\n        isListed[_nftID] = true;\n        purchaseAmount[_nftID] = _listPrice;\n    }   \n\n    function buyCar(uint256 _nftID) public payable {\n        require(msg.value >= purchaseAmount[_nftID], \"Insufficient payment\");\n        buyer[_nftID] = msg.sender;\n    }\n\n    function updatedInspectionStatus(uint256 _nftID, bool _passed) public onlyInspector {\n        inspectionPassed[_nftID] = _passed;\n    }\n\n    function approveSale(uint256 _nftID) public {\n        approval[_nftID][msg.sender] = true;\n    }\n\n    function getAllTokens() public view returns (uint256[] memory) {\n        uint256[] memory tokenIds = new uint256[](listedTokens.length);\n        for (uint256 i = 0; i < listedTokens.length; i++) {\n            tokenIds[i] = listedTokens[i].nftID ;\n        }\n        return tokenIds;\n    }\n\n    function removeToken(uint256 tokenId) public {\n    // find the index of the TokenData struct with the given token ID\n        uint256 index = 0;\n        bool found = false;\n        for (uint256 i = 0; i < listedTokens.length; i++) {\n        if (listedTokens[i].nftID == tokenId) {\n            index = i;\n            found = true;\n            break;\n        }\n    }\n    require(found, \"Token ID not found in tokenList\");\n\n    // remove the TokenData struct from the tokenList array\n        if (index < listedTokens.length - 1) {\n            listedTokens[index] = listedTokens[listedTokens.length - 1];\n        }\n        listedTokens.pop();\n    }   \n\n    function finalizeSale(uint256 _nftID) public {\n        require(inspectionPassed[_nftID], \"Car has not passed inspection\");\n        require(approval[_nftID][buyer[_nftID]], \"Buyer has not approved the sale\");\n        require(address(this).balance >= purchaseAmount[_nftID], \"Insufficient funds to cover the purchase amount\");\n\n        isListed[_nftID] = false;\n\n        (bool success,) = payable(seller[_nftID]).call{value: purchaseAmount[_nftID]}(\"\");\n        require(success, \"Failed to transfer funds to seller\");\n        removeToken(_nftID);\n        IERC721(nftAddress).transferFrom(address(this), buyer[_nftID], _nftID);\n    }\n\n    receive() external payable {}\n\n    function getBalance() public view returns (uint256) {\n        return (address(this).balance);\n    }\n}",
  "sourcePath": "/Users/keatonkrieger/Documents/Dev/PetrolTrader/truffle-app/contracts/dealership.sol",
  "compiler": {
    "name": "solc",
    "version": "0.8.19+commit.7dd6d404.Emscripten.clang"
  },
  "schemaVersion": "3.4.13",
  "updatedAt": "2023-04-13T17:10:01.963Z",
  "devdoc": {
    "kind": "dev",
    "methods": {},
    "version": 1
  },
  "userdoc": {
    "kind": "user",
    "methods": {},
    "version": 1
  }
}