{
  "contractName": "MintCar",
  "abi": [
    {
      "inputs": [],
      "stateMutability": "nonpayable",
      "type": "constructor"
    },
    {
      "anonymous": false,
      "inputs": [
        {
          "indexed": true,
          "internalType": "address",
          "name": "owner",
          "type": "address"
        },
        {
          "indexed": true,
          "internalType": "address",
          "name": "approved",
          "type": "address"
        },
        {
          "indexed": true,
          "internalType": "uint256",
          "name": "tokenId",
          "type": "uint256"
        }
      ],
      "name": "Approval",
      "type": "event"
    },
    {
      "anonymous": false,
      "inputs": [
        {
          "indexed": true,
          "internalType": "address",
          "name": "owner",
          "type": "address"
        },
        {
          "indexed": true,
          "internalType": "address",
          "name": "operator",
          "type": "address"
        },
        {
          "indexed": false,
          "internalType": "bool",
          "name": "approved",
          "type": "bool"
        }
      ],
      "name": "ApprovalForAll",
      "type": "event"
    },
    {
      "anonymous": false,
      "inputs": [
        {
          "indexed": true,
          "internalType": "address",
          "name": "from",
          "type": "address"
        },
        {
          "indexed": true,
          "internalType": "address",
          "name": "to",
          "type": "address"
        },
        {
          "indexed": true,
          "internalType": "uint256",
          "name": "tokenId",
          "type": "uint256"
        }
      ],
      "name": "Transfer",
      "type": "event"
    },
    {
      "inputs": [
        {
          "internalType": "address",
          "name": "to",
          "type": "address"
        },
        {
          "internalType": "uint256",
          "name": "tokenId",
          "type": "uint256"
        }
      ],
      "name": "approve",
      "outputs": [],
      "stateMutability": "nonpayable",
      "type": "function"
    },
    {
      "inputs": [
        {
          "internalType": "address",
          "name": "owner",
          "type": "address"
        }
      ],
      "name": "balanceOf",
      "outputs": [
        {
          "internalType": "uint256",
          "name": "",
          "type": "uint256"
        }
      ],
      "stateMutability": "view",
      "type": "function"
    },
    {
      "inputs": [
        {
          "internalType": "uint256",
          "name": "tokenId",
          "type": "uint256"
        }
      ],
      "name": "getApproved",
      "outputs": [
        {
          "internalType": "address",
          "name": "",
          "type": "address"
        }
      ],
      "stateMutability": "view",
      "type": "function"
    },
    {
      "inputs": [
        {
          "internalType": "address",
          "name": "owner",
          "type": "address"
        },
        {
          "internalType": "address",
          "name": "operator",
          "type": "address"
        }
      ],
      "name": "isApprovedForAll",
      "outputs": [
        {
          "internalType": "bool",
          "name": "",
          "type": "bool"
        }
      ],
      "stateMutability": "view",
      "type": "function"
    },
    {
      "inputs": [],
      "name": "name",
      "outputs": [
        {
          "internalType": "string",
          "name": "",
          "type": "string"
        }
      ],
      "stateMutability": "view",
      "type": "function"
    },
    {
      "inputs": [
        {
          "internalType": "uint256",
          "name": "tokenId",
          "type": "uint256"
        }
      ],
      "name": "ownerOf",
      "outputs": [
        {
          "internalType": "address",
          "name": "",
          "type": "address"
        }
      ],
      "stateMutability": "view",
      "type": "function"
    },
    {
      "inputs": [
        {
          "internalType": "address",
          "name": "from",
          "type": "address"
        },
        {
          "internalType": "address",
          "name": "to",
          "type": "address"
        },
        {
          "internalType": "uint256",
          "name": "tokenId",
          "type": "uint256"
        }
      ],
      "name": "safeTransferFrom",
      "outputs": [],
      "stateMutability": "nonpayable",
      "type": "function"
    },
    {
      "inputs": [
        {
          "internalType": "address",
          "name": "from",
          "type": "address"
        },
        {
          "internalType": "address",
          "name": "to",
          "type": "address"
        },
        {
          "internalType": "uint256",
          "name": "tokenId",
          "type": "uint256"
        },
        {
          "internalType": "bytes",
          "name": "data",
          "type": "bytes"
        }
      ],
      "name": "safeTransferFrom",
      "outputs": [],
      "stateMutability": "nonpayable",
      "type": "function"
    },
    {
      "inputs": [
        {
          "internalType": "address",
          "name": "operator",
          "type": "address"
        },
        {
          "internalType": "bool",
          "name": "approved",
          "type": "bool"
        }
      ],
      "name": "setApprovalForAll",
      "outputs": [],
      "stateMutability": "nonpayable",
      "type": "function"
    },
    {
      "inputs": [
        {
          "internalType": "bytes4",
          "name": "interfaceId",
          "type": "bytes4"
        }
      ],
      "name": "supportsInterface",
      "outputs": [
        {
          "internalType": "bool",
          "name": "",
          "type": "bool"
        }
      ],
      "stateMutability": "view",
      "type": "function"
    },
    {
      "inputs": [],
      "name": "symbol",
      "outputs": [
        {
          "internalType": "string",
          "name": "",
          "type": "string"
        }
      ],
      "stateMutability": "view",
      "type": "function"
    },
    {
      "inputs": [
        {
          "internalType": "uint256",
          "name": "tokenId",
          "type": "uint256"
        }
      ],
      "name": "tokenURI",
      "outputs": [
        {
          "internalType": "string",
          "name": "",
          "type": "string"
        }
      ],
      "stateMutability": "view",
      "type": "function"
    },
    {
      "inputs": [
        {
          "internalType": "address",
          "name": "from",
          "type": "address"
        },
        {
          "internalType": "address",
          "name": "to",
          "type": "address"
        },
        {
          "internalType": "uint256",
          "name": "tokenId",
          "type": "uint256"
        }
      ],
      "name": "transferFrom",
      "outputs": [],
      "stateMutability": "nonpayable",
      "type": "function"
    },
    {
      "inputs": [
        {
          "internalType": "string",
          "name": "tokenURI",
          "type": "string"
        },
        {
          "internalType": "address",
          "name": "approvedContract",
          "type": "address"
        }
      ],
      "name": "mint",
      "outputs": [
        {
          "internalType": "uint256",
          "name": "",
          "type": "uint256"
        }
      ],
      "stateMutability": "nonpayable",
      "type": "function"
    },
    {
      "inputs": [],
      "name": "totalSupply",
      "outputs": [
        {
          "internalType": "uint256",
          "name": "",
          "type": "uint256"
        }
      ],
      "stateMutability": "view",
      "type": "function"
    }
  ],
  "bytecode": "0x60806040523480156200001157600080fd5b506040518060400160405280600e81526020017f436172204465616c6572736869700000000000000000000000000000000000008152506040518060400160405280600481526020017f444c45520000000000000000000000000000000000000000000000000000000081525081600090816200008f919062000324565b508060019081620000a1919062000324565b5050506200040b565b600081519050919050565b7f4e487b7100000000000000000000000000000000000000000000000000000000600052604160045260246000fd5b7f4e487b7100000000000000000000000000000000000000000000000000000000600052602260045260246000fd5b600060028204905060018216806200012c57607f821691505b602082108103620001425762000141620000e4565b5b50919050565b60008190508160005260206000209050919050565b60006020601f8301049050919050565b600082821b905092915050565b600060088302620001ac7fffffffffffffffffffffffffffffffffffffffffffffffffffffffffffffffff826200016d565b620001b886836200016d565b95508019841693508086168417925050509392505050565b6000819050919050565b6000819050919050565b600062000205620001ff620001f984620001d0565b620001da565b620001d0565b9050919050565b6000819050919050565b6200022183620001e4565b6200023962000230826200020c565b8484546200017a565b825550505050565b600090565b6200025062000241565b6200025d81848462000216565b505050565b5b8181101562000285576200027960008262000246565b60018101905062000263565b5050565b601f821115620002d4576200029e8162000148565b620002a9846200015d565b81016020851015620002b9578190505b620002d1620002c8856200015d565b83018262000262565b50505b505050565b600082821c905092915050565b6000620002f960001984600802620002d9565b1980831691505092915050565b6000620003148383620002e6565b9150826002028217905092915050565b6200032f82620000aa565b67ffffffffffffffff8111156200034b576200034a620000b5565b5b62000357825462000113565b6200036482828562000289565b600060209050601f8311600181146200039c576000841562000387578287015190505b62000393858262000306565b86555062000403565b601f198416620003ac8662000148565b60005b82811015620003d657848901518255600182019150602085019450602081019050620003af565b86831015620003f65784890151620003f2601f891682620002e6565b8355505b6001600288020188555050505b505050505050565b612a8c806200041b6000396000f3fe608060405234801561001057600080fd5b50600436106100f55760003560e01c806342842e0e11610097578063a22cb46511610066578063a22cb46514610298578063b88d4fde146102b4578063c87b56dd146102d0578063e985e9c514610300576100f5565b806342842e0e146101fe5780636352211e1461021a57806370a082311461024a57806395d89b411461027a576100f5565b8063095ea7b3116100d3578063095ea7b31461017857806318160ddd146101945780631c351a9d146101b257806323b872dd146101e2576100f5565b806301ffc9a7146100fa57806306fdde031461012a578063081812fc14610148575b600080fd5b610114600480360381019061010f919061197b565b610330565b60405161012191906119c3565b60405180910390f35b610132610412565b60405161013f9190611a6e565b60405180910390f35b610162600480360381019061015d9190611ac6565b6104a4565b60405161016f9190611b34565b60405180910390f35b610192600480360381019061018d9190611b7b565b6104ea565b005b61019c610601565b6040516101a99190611bca565b60405180910390f35b6101cc60048036038101906101c79190611d1a565b610612565b6040516101d99190611bca565b60405180910390f35b6101fc60048036038101906101f79190611d76565b610654565b005b61021860048036038101906102139190611d76565b6106b4565b005b610234600480360381019061022f9190611ac6565b6106d4565b6040516102419190611b34565b60405180910390f35b610264600480360381019061025f9190611dc9565b61075a565b6040516102719190611bca565b60405180910390f35b610282610811565b60405161028f9190611a6e565b60405180910390f35b6102b260048036038101906102ad9190611e22565b6108a3565b005b6102ce60048036038101906102c99190611f03565b6108b9565b005b6102ea60048036038101906102e59190611ac6565b61091b565b6040516102f79190611a6e565b60405180910390f35b61031a60048036038101906103159190611f86565b610a2d565b60405161032791906119c3565b60405180910390f35b60007f80ac58cd000000000000000000000000000000000000000000000000000000007bffffffffffffffffffffffffffffffffffffffffffffffffffffffff1916827bffffffffffffffffffffffffffffffffffffffffffffffffffffffff191614806103fb57507f5b5e139f000000000000000000000000000000000000000000000000000000007bffffffffffffffffffffffffffffffffffffffffffffffffffffffff1916827bffffffffffffffffffffffffffffffffffffffffffffffffffffffff1916145b8061040b575061040a82610ac1565b5b9050919050565b60606000805461042190611ff5565b80601f016020809104026020016040519081016040528092919081815260200182805461044d90611ff5565b801561049a5780601f1061046f5761010080835404028352916020019161049a565b820191906000526020600020905b81548152906001019060200180831161047d57829003601f168201915b5050505050905090565b60006104af82610b2b565b6004600083815260200190815260200160002060009054906101000a900473ffffffffffffffffffffffffffffffffffffffff169050919050565b60006104f5826106d4565b90508073ffffffffffffffffffffffffffffffffffffffff168373ffffffffffffffffffffffffffffffffffffffff1603610565576040517f08c379a000000000000000000000000000000000000000000000000000000000815260040161055c90612098565b60405180910390fd5b8073ffffffffffffffffffffffffffffffffffffffff16610584610b76565b73ffffffffffffffffffffffffffffffffffffffff1614806105b357506105b2816105ad610b76565b610a2d565b5b6105f2576040517f08c379a00000000000000000000000000000000000000000000000000000000081526004016105e99061212a565b60405180910390fd5b6105fc8383610b7e565b505050565b600061060d6007610c37565b905090565b600061061e6007610c45565b600061062a6007610c37565b90506106363382610c5b565b6106408185610e78565b61064a83826104ea565b8091505092915050565b61066561065f610b76565b82610ee5565b6106a4576040517f08c379a000000000000000000000000000000000000000000000000000000000815260040161069b906121bc565b60405180910390fd5b6106af838383610f7a565b505050565b6106cf838383604051806020016040528060008152506108b9565b505050565b6000806106e083611273565b9050600073ffffffffffffffffffffffffffffffffffffffff168173ffffffffffffffffffffffffffffffffffffffff1603610751576040517f08c379a000000000000000000000000000000000000000000000000000000000815260040161074890612228565b60405180910390fd5b80915050919050565b60008073ffffffffffffffffffffffffffffffffffffffff168273ffffffffffffffffffffffffffffffffffffffff16036107ca576040517f08c379a00000000000000000000000000000000000000000000000000000000081526004016107c1906122ba565b60405180910390fd5b600360008373ffffffffffffffffffffffffffffffffffffffff1673ffffffffffffffffffffffffffffffffffffffff168152602001908152602001600020549050919050565b60606001805461082090611ff5565b80601f016020809104026020016040519081016040528092919081815260200182805461084c90611ff5565b80156108995780601f1061086e57610100808354040283529160200191610899565b820191906000526020600020905b81548152906001019060200180831161087c57829003601f168201915b5050505050905090565b6108b56108ae610b76565b83836112b0565b5050565b6108ca6108c4610b76565b83610ee5565b610909576040517f08c379a0000000000000000000000000000000000000000000000000000000008152600401610900906121bc565b60405180910390fd5b6109158484848461141c565b50505050565b606061092682610b2b565b600060066000848152602001908152602001600020805461094690611ff5565b80601f016020809104026020016040519081016040528092919081815260200182805461097290611ff5565b80156109bf5780601f10610994576101008083540402835291602001916109bf565b820191906000526020600020905b8154815290600101906020018083116109a257829003601f168201915b5050505050905060006109d0611478565b905060008151036109e5578192505050610a28565b600082511115610a1a578082604051602001610a02929190612316565b60405160208183030381529060405292505050610a28565b610a238461148f565b925050505b919050565b6000600560008473ffffffffffffffffffffffffffffffffffffffff1673ffffffffffffffffffffffffffffffffffffffff16815260200190815260200160002060008373ffffffffffffffffffffffffffffffffffffffff1673ffffffffffffffffffffffffffffffffffffffff16815260200190815260200160002060009054906101000a900460ff16905092915050565b60007f01ffc9a7000000000000000000000000000000000000000000000000000000007bffffffffffffffffffffffffffffffffffffffffffffffffffffffff1916827bffffffffffffffffffffffffffffffffffffffffffffffffffffffff1916149050919050565b610b34816114f7565b610b73576040517f08c379a0000000000000000000000000000000000000000000000000000000008152600401610b6a90612228565b60405180910390fd5b50565b600033905090565b816004600083815260200190815260200160002060006101000a81548173ffffffffffffffffffffffffffffffffffffffff021916908373ffffffffffffffffffffffffffffffffffffffff160217905550808273ffffffffffffffffffffffffffffffffffffffff16610bf1836106d4565b73ffffffffffffffffffffffffffffffffffffffff167f8c5be1e5ebec7d5bd14f71427d1e84f3dd0314c0f7b2291e5b200ac8c7c3b92560405160405180910390a45050565b600081600001549050919050565b6001816000016000828254019250508190555050565b600073ffffffffffffffffffffffffffffffffffffffff168273ffffffffffffffffffffffffffffffffffffffff1603610cca576040517f08c379a0000000000000000000000000000000000000000000000000000000008152600401610cc190612386565b60405180910390fd5b610cd3816114f7565b15610d13576040517f08c379a0000000000000000000000000000000000000000000000000000000008152600401610d0a906123f2565b60405180910390fd5b610d21600083836001611538565b610d2a816114f7565b15610d6a576040517f08c379a0000000000000000000000000000000000000000000000000000000008152600401610d61906123f2565b60405180910390fd5b6001600360008473ffffffffffffffffffffffffffffffffffffffff1673ffffffffffffffffffffffffffffffffffffffff16815260200190815260200160002060008282540192505081905550816002600083815260200190815260200160002060006101000a81548173ffffffffffffffffffffffffffffffffffffffff021916908373ffffffffffffffffffffffffffffffffffffffff160217905550808273ffffffffffffffffffffffffffffffffffffffff16600073ffffffffffffffffffffffffffffffffffffffff167fddf252ad1be2c89b69c2b068fc378daa952ba7f163c4a11628f55a4df523b3ef60405160405180910390a4610e7460008383600161153e565b5050565b610e81826114f7565b610ec0576040517f08c379a0000000000000000000000000000000000000000000000000000000008152600401610eb790612484565b60405180910390fd5b80600660008481526020019081526020016000209081610ee09190612650565b505050565b600080610ef1836106d4565b90508073ffffffffffffffffffffffffffffffffffffffff168473ffffffffffffffffffffffffffffffffffffffff161480610f335750610f328185610a2d565b5b80610f7157508373ffffffffffffffffffffffffffffffffffffffff16610f59846104a4565b73ffffffffffffffffffffffffffffffffffffffff16145b91505092915050565b8273ffffffffffffffffffffffffffffffffffffffff16610f9a826106d4565b73ffffffffffffffffffffffffffffffffffffffff1614610ff0576040517f08c379a0000000000000000000000000000000000000000000000000000000008152600401610fe790612794565b60405180910390fd5b600073ffffffffffffffffffffffffffffffffffffffff168273ffffffffffffffffffffffffffffffffffffffff160361105f576040517f08c379a000000000000000000000000000000000000000000000000000000000815260040161105690612826565b60405180910390fd5b61106c8383836001611538565b8273ffffffffffffffffffffffffffffffffffffffff1661108c826106d4565b73ffffffffffffffffffffffffffffffffffffffff16146110e2576040517f08c379a00000000000000000000000000000000000000000000000000000000081526004016110d990612794565b60405180910390fd5b6004600082815260200190815260200160002060006101000a81549073ffffffffffffffffffffffffffffffffffffffff02191690556001600360008573ffffffffffffffffffffffffffffffffffffffff1673ffffffffffffffffffffffffffffffffffffffff168152602001908152602001600020600082825403925050819055506001600360008473ffffffffffffffffffffffffffffffffffffffff1673ffffffffffffffffffffffffffffffffffffffff16815260200190815260200160002060008282540192505081905550816002600083815260200190815260200160002060006101000a81548173ffffffffffffffffffffffffffffffffffffffff021916908373ffffffffffffffffffffffffffffffffffffffff160217905550808273ffffffffffffffffffffffffffffffffffffffff168473ffffffffffffffffffffffffffffffffffffffff167fddf252ad1be2c89b69c2b068fc378daa952ba7f163c4a11628f55a4df523b3ef60405160405180910390a461126e838383600161153e565b505050565b60006002600083815260200190815260200160002060009054906101000a900473ffffffffffffffffffffffffffffffffffffffff169050919050565b8173ffffffffffffffffffffffffffffffffffffffff168373ffffffffffffffffffffffffffffffffffffffff160361131e576040517f08c379a000000000000000000000000000000000000000000000000000000000815260040161131590612892565b60405180910390fd5b80600560008573ffffffffffffffffffffffffffffffffffffffff1673ffffffffffffffffffffffffffffffffffffffff16815260200190815260200160002060008473ffffffffffffffffffffffffffffffffffffffff1673ffffffffffffffffffffffffffffffffffffffff16815260200190815260200160002060006101000a81548160ff0219169083151502179055508173ffffffffffffffffffffffffffffffffffffffff168373ffffffffffffffffffffffffffffffffffffffff167f17307eab39ab6107e8899845ad3d59bd9653f200f220920489ca2b5937696c318360405161140f91906119c3565b60405180910390a3505050565b611427848484610f7a565b61143384848484611544565b611472576040517f08c379a000000000000000000000000000000000000000000000000000000000815260040161146990612924565b60405180910390fd5b50505050565b606060405180602001604052806000815250905090565b606061149a82610b2b565b60006114a4611478565b905060008151116114c457604051806020016040528060008152506114ef565b806114ce846116cb565b6040516020016114df929190612316565b6040516020818303038152906040525b915050919050565b60008073ffffffffffffffffffffffffffffffffffffffff1661151983611273565b73ffffffffffffffffffffffffffffffffffffffff1614159050919050565b50505050565b50505050565b60006115658473ffffffffffffffffffffffffffffffffffffffff16611799565b156116be578373ffffffffffffffffffffffffffffffffffffffff1663150b7a0261158e610b76565b8786866040518563ffffffff1660e01b81526004016115b09493929190612999565b6020604051808303816000875af19250505080156115ec57506040513d601f19601f820116820180604052508101906115e991906129fa565b60015b61166e573d806000811461161c576040519150601f19603f3d011682016040523d82523d6000602084013e611621565b606091505b506000815103611666576040517f08c379a000000000000000000000000000000000000000000000000000000000815260040161165d90612924565b60405180910390fd5b805181602001fd5b63150b7a0260e01b7bffffffffffffffffffffffffffffffffffffffffffffffffffffffff1916817bffffffffffffffffffffffffffffffffffffffffffffffffffffffff1916149150506116c3565b600190505b949350505050565b6060600060016116da846117bc565b01905060008167ffffffffffffffff8111156116f9576116f8611bef565b5b6040519080825280601f01601f19166020018201604052801561172b5781602001600182028036833780820191505090505b509050600082602001820190505b60011561178e578080600190039150507f3031323334353637383961626364656600000000000000000000000000000000600a86061a8153600a858161178257611781612a27565b5b04945060008503611739575b819350505050919050565b6000808273ffffffffffffffffffffffffffffffffffffffff163b119050919050565b600080600090507a184f03e93ff9f4daa797ed6e38ed64bf6a1f010000000000000000831061181a577a184f03e93ff9f4daa797ed6e38ed64bf6a1f01000000000000000083816118105761180f612a27565b5b0492506040810190505b6d04ee2d6d415b85acef81000000008310611857576d04ee2d6d415b85acef8100000000838161184d5761184c612a27565b5b0492506020810190505b662386f26fc10000831061188657662386f26fc10000838161187c5761187b612a27565b5b0492506010810190505b6305f5e10083106118af576305f5e10083816118a5576118a4612a27565b5b0492506008810190505b61271083106118d45761271083816118ca576118c9612a27565b5b0492506004810190505b606483106118f757606483816118ed576118ec612a27565b5b0492506002810190505b600a8310611906576001810190505b80915050919050565b6000604051905090565b600080fd5b600080fd5b60007fffffffff0000000000000000000000000000000000000000000000000000000082169050919050565b61195881611923565b811461196357600080fd5b50565b6000813590506119758161194f565b92915050565b60006020828403121561199157611990611919565b5b600061199f84828501611966565b91505092915050565b60008115159050919050565b6119bd816119a8565b82525050565b60006020820190506119d860008301846119b4565b92915050565b600081519050919050565b600082825260208201905092915050565b60005b83811015611a185780820151818401526020810190506119fd565b60008484015250505050565b6000601f19601f8301169050919050565b6000611a40826119de565b611a4a81856119e9565b9350611a5a8185602086016119fa565b611a6381611a24565b840191505092915050565b60006020820190508181036000830152611a888184611a35565b905092915050565b6000819050919050565b611aa381611a90565b8114611aae57600080fd5b50565b600081359050611ac081611a9a565b92915050565b600060208284031215611adc57611adb611919565b5b6000611aea84828501611ab1565b91505092915050565b600073ffffffffffffffffffffffffffffffffffffffff82169050919050565b6000611b1e82611af3565b9050919050565b611b2e81611b13565b82525050565b6000602082019050611b496000830184611b25565b92915050565b611b5881611b13565b8114611b6357600080fd5b50565b600081359050611b7581611b4f565b92915050565b60008060408385031215611b9257611b91611919565b5b6000611ba085828601611b66565b9250506020611bb185828601611ab1565b9150509250929050565b611bc481611a90565b82525050565b6000602082019050611bdf6000830184611bbb565b92915050565b600080fd5b600080fd5b7f4e487b7100000000000000000000000000000000000000000000000000000000600052604160045260246000fd5b611c2782611a24565b810181811067ffffffffffffffff82111715611c4657611c45611bef565b5b80604052505050565b6000611c5961190f565b9050611c658282611c1e565b919050565b600067ffffffffffffffff821115611c8557611c84611bef565b5b611c8e82611a24565b9050602081019050919050565b82818337600083830152505050565b6000611cbd611cb884611c6a565b611c4f565b905082815260208101848484011115611cd957611cd8611bea565b5b611ce4848285611c9b565b509392505050565b600082601f830112611d0157611d00611be5565b5b8135611d11848260208601611caa565b91505092915050565b60008060408385031215611d3157611d30611919565b5b600083013567ffffffffffffffff811115611d4f57611d4e61191e565b5b611d5b85828601611cec565b9250506020611d6c85828601611b66565b9150509250929050565b600080600060608486031215611d8f57611d8e611919565b5b6000611d9d86828701611b66565b9350506020611dae86828701611b66565b9250506040611dbf86828701611ab1565b9150509250925092565b600060208284031215611ddf57611dde611919565b5b6000611ded84828501611b66565b91505092915050565b611dff816119a8565b8114611e0a57600080fd5b50565b600081359050611e1c81611df6565b92915050565b60008060408385031215611e3957611e38611919565b5b6000611e4785828601611b66565b9250506020611e5885828601611e0d565b9150509250929050565b600067ffffffffffffffff821115611e7d57611e7c611bef565b5b611e8682611a24565b9050602081019050919050565b6000611ea6611ea184611e62565b611c4f565b905082815260208101848484011115611ec257611ec1611bea565b5b611ecd848285611c9b565b509392505050565b600082601f830112611eea57611ee9611be5565b5b8135611efa848260208601611e93565b91505092915050565b60008060008060808587031215611f1d57611f1c611919565b5b6000611f2b87828801611b66565b9450506020611f3c87828801611b66565b9350506040611f4d87828801611ab1565b925050606085013567ffffffffffffffff811115611f6e57611f6d61191e565b5b611f7a87828801611ed5565b91505092959194509250565b60008060408385031215611f9d57611f9c611919565b5b6000611fab85828601611b66565b9250506020611fbc85828601611b66565b9150509250929050565b7f4e487b7100000000000000000000000000000000000000000000000000000000600052602260045260246000fd5b6000600282049050600182168061200d57607f821691505b6020821081036120205761201f611fc6565b5b50919050565b7f4552433732313a20617070726f76616c20746f2063757272656e74206f776e6560008201527f7200000000000000000000000000000000000000000000000000000000000000602082015250565b60006120826021836119e9565b915061208d82612026565b604082019050919050565b600060208201905081810360008301526120b181612075565b9050919050565b7f4552433732313a20617070726f76652063616c6c6572206973206e6f7420746f60008201527f6b656e206f776e6572206f7220617070726f76656420666f7220616c6c000000602082015250565b6000612114603d836119e9565b915061211f826120b8565b604082019050919050565b6000602082019050818103600083015261214381612107565b9050919050565b7f4552433732313a2063616c6c6572206973206e6f7420746f6b656e206f776e6560008201527f72206f7220617070726f76656400000000000000000000000000000000000000602082015250565b60006121a6602d836119e9565b91506121b18261214a565b604082019050919050565b600060208201905081810360008301526121d581612199565b9050919050565b7f4552433732313a20696e76616c696420746f6b656e2049440000000000000000600082015250565b60006122126018836119e9565b915061221d826121dc565b602082019050919050565b6000602082019050818103600083015261224181612205565b9050919050565b7f4552433732313a2061646472657373207a65726f206973206e6f74206120766160008201527f6c6964206f776e65720000000000000000000000000000000000000000000000602082015250565b60006122a46029836119e9565b91506122af82612248565b604082019050919050565b600060208201905081810360008301526122d381612297565b9050919050565b600081905092915050565b60006122f0826119de565b6122fa81856122da565b935061230a8185602086016119fa565b80840191505092915050565b600061232282856122e5565b915061232e82846122e5565b91508190509392505050565b7f4552433732313a206d696e7420746f20746865207a65726f2061646472657373600082015250565b60006123706020836119e9565b915061237b8261233a565b602082019050919050565b6000602082019050818103600083015261239f81612363565b9050919050565b7f4552433732313a20746f6b656e20616c7265616479206d696e74656400000000600082015250565b60006123dc601c836119e9565b91506123e7826123a6565b602082019050919050565b6000602082019050818103600083015261240b816123cf565b9050919050565b7f45524337323155524953746f726167653a2055524920736574206f66206e6f6e60008201527f6578697374656e7420746f6b656e000000000000000000000000000000000000602082015250565b600061246e602e836119e9565b915061247982612412565b604082019050919050565b6000602082019050818103600083015261249d81612461565b9050919050565b60008190508160005260206000209050919050565b60006020601f8301049050919050565b600082821b905092915050565b6000600883026125067fffffffffffffffffffffffffffffffffffffffffffffffffffffffffffffffff826124c9565b61251086836124c9565b95508019841693508086168417925050509392505050565b6000819050919050565b600061254d61254861254384611a90565b612528565b611a90565b9050919050565b6000819050919050565b61256783612532565b61257b61257382612554565b8484546124d6565b825550505050565b600090565b612590612583565b61259b81848461255e565b505050565b5b818110156125bf576125b4600082612588565b6001810190506125a1565b5050565b601f821115612604576125d5816124a4565b6125de846124b9565b810160208510156125ed578190505b6126016125f9856124b9565b8301826125a0565b50505b505050565b600082821c905092915050565b600061262760001984600802612609565b1980831691505092915050565b60006126408383612616565b9150826002028217905092915050565b612659826119de565b67ffffffffffffffff81111561267257612671611bef565b5b61267c8254611ff5565b6126878282856125c3565b600060209050601f8311600181146126ba57600084156126a8578287015190505b6126b28582612634565b86555061271a565b601f1984166126c8866124a4565b60005b828110156126f0578489015182556001820191506020850194506020810190506126cb565b8683101561270d5784890151612709601f891682612616565b8355505b6001600288020188555050505b505050505050565b7f4552433732313a207472616e736665722066726f6d20696e636f72726563742060008201527f6f776e6572000000000000000000000000000000000000000000000000000000602082015250565b600061277e6025836119e9565b915061278982612722565b604082019050919050565b600060208201905081810360008301526127ad81612771565b9050919050565b7f4552433732313a207472616e7366657220746f20746865207a65726f2061646460008201527f7265737300000000000000000000000000000000000000000000000000000000602082015250565b60006128106024836119e9565b915061281b826127b4565b604082019050919050565b6000602082019050818103600083015261283f81612803565b9050919050565b7f4552433732313a20617070726f766520746f2063616c6c657200000000000000600082015250565b600061287c6019836119e9565b915061288782612846565b602082019050919050565b600060208201905081810360008301526128ab8161286f565b9050919050565b7f4552433732313a207472616e7366657220746f206e6f6e20455243373231526560008201527f63656976657220696d706c656d656e7465720000000000000000000000000000602082015250565b600061290e6032836119e9565b9150612919826128b2565b604082019050919050565b6000602082019050818103600083015261293d81612901565b9050919050565b600081519050919050565b600082825260208201905092915050565b600061296b82612944565b612975818561294f565b93506129858185602086016119fa565b61298e81611a24565b840191505092915050565b60006080820190506129ae6000830187611b25565b6129bb6020830186611b25565b6129c86040830185611bbb565b81810360608301526129da8184612960565b905095945050505050565b6000815190506129f48161194f565b92915050565b600060208284031215612a1057612a0f611919565b5b6000612a1e848285016129e5565b91505092915050565b7f4e487b7100000000000000000000000000000000000000000000000000000000600052601260045260246000fdfea26469706673582212207547a4ad29dc60088c5ad596fdde2b09db8c67af73213c3934aa4dc19abe208664736f6c63430008130033",
  "immutableReferences": {},
  "source": "// SPDX-License-Identifier: GPL-3.0\n\npragma solidity >=0.7.0 <0.9.0;\n\nimport \"@openzeppelin/contracts/utils/Counters.sol\";\nimport \"@openzeppelin/contracts/token/ERC721/ERC721.sol\";\nimport \"@openzeppelin/contracts/token/ERC721/extensions/ERC721URIStorage.sol\";\n\n/**\n * @title Owner\n * @dev Set & change owner\n */\n\ncontract MintCar is ERC721URIStorage {\n    using Counters for Counters.Counter;\n    Counters.Counter private _tokenIds;\n\n    constructor() ERC721(\"Car Dealership\", \"DLER\") {}\n\n    function mint(string memory tokenURI, address approvedContract) public returns (uint256) {\n        _tokenIds.increment();\n\n        uint256 newItemId = _tokenIds.current();\n        _mint(msg.sender, newItemId);\n        _setTokenURI(newItemId, tokenURI);\n        approve(approvedContract, newItemId);\n\n        return newItemId;\n    }\n\n    function totalSupply() public view returns (uint256) {\n        return _tokenIds.current();\n    }\n}\n",
  "sourcePath": "/Users/keatonkrieger/Documents/Dev/PetrolTrader/truffle-app/contracts/mint.sol",
  "compiler": {
    "name": "solc",
    "version": "0.8.19+commit.7dd6d404.Emscripten.clang"
  },
  "schemaVersion": "3.4.13",
  "updatedAt": "2023-04-28T18:29:31.582Z",
  "devdoc": {
    "details": "Set & change owner",
    "events": {
      "Approval(address,address,uint256)": {
        "details": "Emitted when `owner` enables `approved` to manage the `tokenId` token."
      },
      "ApprovalForAll(address,address,bool)": {
        "details": "Emitted when `owner` enables or disables (`approved`) `operator` to manage all of its assets."
      },
      "Transfer(address,address,uint256)": {
        "details": "Emitted when `tokenId` token is transferred from `from` to `to`."
      }
    },
    "kind": "dev",
    "methods": {
      "approve(address,uint256)": {
        "details": "See {IERC721-approve}."
      },
      "balanceOf(address)": {
        "details": "See {IERC721-balanceOf}."
      },
      "getApproved(uint256)": {
        "details": "See {IERC721-getApproved}."
      },
      "isApprovedForAll(address,address)": {
        "details": "See {IERC721-isApprovedForAll}."
      },
      "name()": {
        "details": "See {IERC721Metadata-name}."
      },
      "ownerOf(uint256)": {
        "details": "See {IERC721-ownerOf}."
      },
      "safeTransferFrom(address,address,uint256)": {
        "details": "See {IERC721-safeTransferFrom}."
      },
      "safeTransferFrom(address,address,uint256,bytes)": {
        "details": "See {IERC721-safeTransferFrom}."
      },
      "setApprovalForAll(address,bool)": {
        "details": "See {IERC721-setApprovalForAll}."
      },
      "supportsInterface(bytes4)": {
        "details": "See {IERC165-supportsInterface}."
      },
      "symbol()": {
        "details": "See {IERC721Metadata-symbol}."
      },
      "tokenURI(uint256)": {
        "details": "See {IERC721Metadata-tokenURI}."
      },
      "transferFrom(address,address,uint256)": {
        "details": "See {IERC721-transferFrom}."
      }
    },
    "title": "Owner",
    "version": 1
  },
  "userdoc": {
    "kind": "user",
    "methods": {},
    "version": 1
  }
}